AFLY00Sc 0101774
HFDTE040519
HFFXA010
HFPLTPILOT:JIM             
HFCM2CREW2:NKN
HFGTYGLIDERTYPE:NKN             
HFGIDGLIDERID:NKN             
HFDTM100GPSDATUM:WGS84
HFRFWFIRMWAREVERSION: 1.04.17
HFRHWHARDWAREVERSION:1.00
HFFTYFRTYPE:Flytec Element Track
HFGPS:FASTRAX,IT430,48
HFPRSPRESSALTSENSOR:INTERSEMA,MS5401BM,12000
HFALGALTGPS:GEO
HFALPALTPRESSURE:ISA
HFTZNUTCOFFSET: -7.00h
I033638FXA3940SIU4143TAS
C261118181440040519001802
C3429694N11942807W TAKEOFF
C3429694N11942807W START  LACUMB           00000000000500000000360000AREA
C3430117N11946115W TURN   VOR              00000000000500000000360000AREA
C3428194N11923515W TURN   WHTLDG           00000000005000000000360000AREA
C3424935N11940539W FINISH EBEACH           00000000000500000000360000AREA
C3424935N11940539W LANDING
B1640453411617N11719434WA0050400524
F17400105070811132830
B1740013412612N11718185WA012050122302207000
F17403105070811132830
B1740313412612N11718185WA012050122302607000
E174044STA
E174044ATS1015.1
LFLYA1 01223
B1740443412612N11718185WA012050122302607000
B1740443412612N11718185WA012050122302607000
B1740493412612N11718185WA012050122303007000
B1740543412612N11718185WA012050122302807000
B1740593412613N11718186WA012050122301607000
F1741040507081113182830
B1741043412613N11718186WA012050122301808000
B1741093412613N11718186WA012050122401908000
B1741143412613N11718186WA012050122402108000
B1741193412613N11718186WA012050122402108000
B1741243412613N11718186WA012050122401608000
B1741293412612N11718186WA012050122401608000
B1741343412612N11718186WA012050122401608000
B1741393412612N11718186WA012050122501608000
B1741443412612N11718186WA012050122501608000
B1741493412612N11718186WA012050122501608000
B1741543412612N11718186WA012050122501608000
B1741593412612N11718186WA012050122501608000
F17420405070809111317182830
B1742043412612N11718186WA012060122501610000
B1742093412612N11718186WA012050122501510000
B1742143412612N11718186WA012050122500910000
B1742193412612N11718186WA012060122500810000
B1742243412612N11718186WA012050122500810000
B1742293412612N11718186WA012050122501110000
B1742343412612N11718186WA012050122501410000
B1742393412612N11718186WA012050122501310000
B1742443412612N11718186WA012050122501010000
B1742493412612N11718186WA012060122500910000
B1742543412612N11718186WA012060122500910000
B1742593412612N11718186WA012060122500510000
B1743043412612N11718186WA012050122500610000
B1743093412612N11718186WA012050122500810000
B1743143412612N11718186WA012060122500510000
B1743193412612N11718186WA012050122500710000
B1743243412612N11718186WA012050122500810000
B1743293412612N11718186WA012050122500810000
B1743343412612N11718186WA012050122500810000
B1743393412612N11718186WA012050122500610000
B1743443412612N11718186WA012050122500610000
B1743493412612N11718186WA012050122500510000
B1743543412612N11718186WA012050122500610000
B1743593412612N11718186WA012050122500710000
B1744043412612N11718186WA012050122500810000
B1744093412612N11718186WA012050122500610000
B1744143412612N11718186WA012050122500710000
B1744193412612N11718186WA012050122500810000
B1744243412612N11718186WA012050122500810000
B1744293412612N11718186WA012050122500610000
B1744343412612N11718186WA012050122500610000
B1744393412612N11718186WA012050122500710000
B1744443412612N11718186WA012050122500710000
B1744493412612N11718186WA012050122500710000
B1744543412612N11718186WA012050122500310000
B1744593412612N11718186WA012050122500710000
B1745043412612N11718186WA012050122500610000
B1745093412612N11718186WA012050122500710000
B1745143412612N11718186WA012050122500710000
B1745193412612N11718186WA012050122500610000
B1745243412612N11718186WA012050122500410000
B1745293412612N11718186WA012050122500610000
B1745343412612N11718186WA012050122500510000
B1745393412612N11718186WA012050122500510000
B1745443412612N11718186WA012050122500510000
B1745493412612N11718186WA012050122500310000
B1745543412612N11718186WA012050122500410000
B1745593412612N11718186WA012050122500410000
B1746043412612N11718186WA012040122500410000
B1746093412612N11718186WA012040122500410000
B1746143412612N11718186WA012040122500410000
B1746193412612N11718186WA012040122500410000
B1746243412612N11718186WA012040122500410000
B1746293412612N11718186WA012040122500410000
B1746343412612N11718186WA012040122500410000
B1746393412612N11718186WA012040122500410000
B1746443412612N11718186WA012040122500410000
B1746493412612N11718186WA012040122500410000
B1746543412612N11718186WA012040122500410000
B1746593412612N11718186WA012040122500410000
B1747043412612N11718186WA012040122500410000
B1747093412612N11718186WA012040122500410000
B1747143412612N11718186WA012040122500410000
B1747193412612N11718186WA012040122500410000
B1747243412612N11718186WA012040122500410000
B1747293412612N11718186WA012040122500410000
B1747343412612N11718186WA012040122500410000
B1747393412612N11718186WA012040122500410000
B1747443412612N11718186WA012040122500410000
B1747493412612N11718186WA012040122500410000
B1747543412612N11718186WA012040122500410000
B1747593412612N11718186WA012040122500410000
B1748043412612N11718186WA012040122500410000
B1748093412612N11718186WA012040122500610000
B1748143412612N11718186WA012040122500510000
B1748193412612N11718186WA012040122500410000
B1748243412612N11718186WA012040122500610000
B1748293412612N11718186WA012040122500510000
F174834050708091113171828
B1748343412612N11718186WA012040122500609000
F17483905070809111317182830
B1748393412612N11718186WA012040122500610000
B1748443412612N11718186WA012040122500510000
B1748493412612N11718186WA012040122500610000
B1748543412612N11718186WA012040122500610000
B1748593412612N11718186WA012040122500610000
B1749043412612N11718186WA012040122500510000
B1749093412612N11718186WA012040122500610000
B1749143412612N11718186WA012040122500510000
B1749193412612N11718186WA012040122500610000
B1749243412612N11718186WA012040122500610000
B1749293412612N11718186WA012040122500510000
B1749343412612N11718186WA012040122500410000
B1749393412612N11718186WA012040122500410000
B1749443412612N11718186WA012040122500410000
B1749493412612N11718186WA012040122500610000
B1749543412612N11718186WA012040122500610000
B1749593412612N11718186WA012040122500510000
B1750043412612N11718186WA012040122500410000
B1750093412612N11718186WA012040122500410000
B1750143412612N11718186WA012040122500310000
B1750193412612N11718186WA012040122500510000
B1750243412612N11718186WA012040122500510000
B1750293412612N11718186WA012040122500510000
B1750343412612N11718186WA012040122500410000
F175039050708091113171828
B1750393412612N11718186WA012040122500409000
F17504405070809111317182830
B1750443412612N11718186WA012040122500310000
B1750493412612N11718186WA012040122500310000
B1750543412612N11718186WA012040122500310000
B1750593412612N11718186WA012040122500310000
F175104050708091113171830
B1751043412612N11718186WA012040122500309000
F17510905070809111317182830
B1751093412612N11718186WA012040122500310000
B1751143412612N11718186WA012040122500310000
B1751193412612N11718186WA012040122500410000
B1751243412612N11718186WA012040122500510000
B1751293412612N11718186WA012040122500510000
B1751343412612N11718186WA012040122500410000
B1751393412612N11718185WA012040122400510000
B1751443412612N11718185WA012040122400510000
B1751493412612N11718185WA012040122400510000
B1751543412612N11718185WA012040122400410000
B1751593412612N11718185WA012040122400510000
B1752043412612N11718185WA012040122400610000
B1752093412612N11718185WA012040122400610000
B1752143412612N11718185WA012040122400510000
B1752193412612N11718185WA012040122400610000
B1752243412612N11718185WA012040122400510000
B1752293412612N11718185WA012040122400610000
B1752343412612N11718185WA012040122300610000
B1752393412612N11718185WA012040122300710000
B1752443412612N11718185WA012040122300510000
B1752493412612N11718185WA012040122300410000
F1752540507080911131718192830
B1752543412612N11718185WA012040122300411000
B1752593412612N11718185WA012040122300311000
B1753043412612N11718185WA012040122300411000
B1753093412612N11718185WA012040122300411000
B1753143412612N11718185WA012040122300311000
B1753193412612N11718185WA012040122300411000
B1753243412612N11718185WA012040122300411000
B1753293412612N11718185WA012040122300411000
B1753343412612N11718185WA012040122300411000
B1753393412612N11718185WA012040122300511000
B1753443412612N11718185WA012040122300511000
B1753493412612N11718185WA012040122300611000
B1753543412612N11718185WA012040122300511000
B1753593412612N11718185WA012040122300511000
B1754043412612N11718185WA012040122300511000
B1754093412612N11718185WA012040122300511000
B1754143412612N11718185WA012040122300511000
B1754193412612N11718185WA012040122300411000
B1754243412612N11718185WA012040122300511000
B1754293412612N11718185WA012040122300311000
B1754343412612N11718185WA012040122300311000
B1754393412612N11718185WA012040122300511000
B1754443412612N11718185WA012040122300511000
B1754493412612N11718185WA012040122300411000
B1754543412612N11718185WA012040122300511000
B1754593412612N11718185WA012040122300311000
B1755043412612N11718185WA012040122300311000
B1755093412612N11718185WA012040122300311000
B1755143412612N11718185WA012040122300411000
B1755193412612N11718185WA012040122300411000
B1755243412612N11718185WA012040122300411000
B1755293412612N11718185WA012040122300411000
B1755343412612N11718185WA012040122300411000
B1755393412612N11718185WA012040122300411000
B1755443412612N11718185WA012040122300411000
B1755493412612N11718185WA012040122300411000
B1755543412612N11718185WA012040122300411000
B1755593412612N11718185WA012040122300511000
B1756043412612N11718185WA012040122300511000
B1756093412612N11718185WA012040122300511000
B1756143412612N11718185WA012040122300511000
B1756193412612N11718185WA012040122300511000
B1756243412612N11718185WA012040122300511000
B1756293412612N11718185WA012040122300511000
B1756343412612N11718185WA012040122300511000
B1756393412612N11718185WA012040122300511000
B1756443412612N11718185WA012040122300511000
B1756493412612N11718185WA012040122300311000
B1756543412612N11718185WA012040122300511000
B1756593412612N11718185WA012040122300611000
B1757043412612N11718185WA012040122300611000
B1757093412612N11718185WA012040122300611000
B1757143412612N11718185WA012040122300611000
B1757193412612N11718185WA012040122300611000
B1757243412612N11718185WA012040122300511000
B1757293412612N11718185WA012040122300511000
B1757343412612N11718185WA012040122300611000
B1757393412612N11718185WA012040122300511000
B1757443412612N11718185WA012040122300611000
B1757493412612N11718185WA012040122300611000
B1757543412612N11718185WA012040122300611000
B1757593412612N11718185WA012040122300511000
B1758043412612N11718185WA012040122300511000
B1758093412612N11718185WA012040122300511000
B1758143412612N11718185WA012040122300511000
B1758193412612N11718185WA012040122300511000
B1758243412612N11718185WA012040122300511000
B1758293412612N11718185WA012040122300511000
B1758343412612N11718185WA012040122300411000
B1758393412612N11718185WA012040122300511000
B1758443412612N11718185WA012040122200511000
B1758493412612N11718185WA012040122200311000
B1758543412612N11718185WA012040122200511000
B1758593412612N11718185WA012040122200311000
B1759043412612N11718185WA012040122200511000
B1759093412612N11718185WA012040122200311000
B1759143412612N11718185WA012040122200511000
B1759193412612N11718185WA012040122200511000
F17592405070911131718192830
B1759243412612N11718185WA012040122200310000
F1759290507080911131718192830
B1759293412612N11718185WA012040122200211000
B1759343412612N11718185WA012040122200311000
B1759393412612N11718185WA012040122200311000
B1759443412612N11718185WA012040122200311000
B1759493412612N11718185WA012040122200311000
B1759543412612N11718185WA012040122200311000
B1759593412612N11718185WA012040122200311000
B1800043412612N11718185WA012040122200311000
B1800093412612N11718185WA012040122200211000
B1800143412612N11718185WA012040122200411000
B1800193412612N11718185WA012040122200411000
B1800243412612N11718185WA012040122200411000
B1800293412612N11718185WA012040122200411000
B1800343412612N11718185WA012040122200411000
B1800393412612N11718185WA012040122200511000
B1800443412612N11718185WA012040122200511000
B1800493412612N11718185WA012040122200411000
B1800543412612N11718185WA012040122200411000
B1800593412612N11718185WA012040122200511000
B1801043412612N11718185WA012040122200511000
B1801093412612N11718185WA012040122200511000
B1801143412612N11718185WA012040122200511000
B1801193412612N11718185WA012040122200611000
B1801243412612N11718185WA012040122200611000
B1801293412612N11718185WA012040122200511000
B1801343412612N11718185WA012040122200511000
B1801393412612N11718185WA012040122200511000
B1801443412612N11718185WA012040122200611000
B1801493412612N11718185WA012040122200611000
B1801543412612N11718185WA012040122200611000
B1801593412612N11718185WA012050122200611000
B1802043412612N11718185WA012050122200611000
B1802093412612N11718185WA012050122200511000
B1802143412612N11718185WA012050122200611000
B1802193412612N11718185WA012050122200611000
B1802243412612N11718185WA012050122200611000
B1802293412612N11718185WA012050122200611000
B1802343412612N11718185WA012050122200611000
B1802393412612N11718185WA012050122200611000
B1802443412612N11718185WA012050122200611000
B1802493412612N11718185WA012050122200611000
B1802543412612N11718185WA012050122200511000
B1802593412612N11718185WA012050122200411000
B1803043412612N11718185WA012050122200511000
B1803093412612N11718185WA012050122200411000
B1803143412612N11718185WA012050122200511000
B1803193412612N11718185WA012050122200311000
B1803243412612N11718185WA012050122200511000
B1803293412612N11718185WA012050122200511000
B1803343412612N11718185WA012050122200411000
B1803393412612N11718185WA012050122200411000
B1803443412612N11718185WA012050122200511000
B1803493412612N11718185WA012050122200411000
B1803543412612N11718185WA012050122200411000
B1803593412612N11718185WA012050122200311000
B1804043412612N11718185WA012050122200511000
B1804093412612N11718185WA012050122200311000
B1804143412612N11718185WA012050122200411000
B1804193412612N11718185WA012050122200311000
B1804243412612N11718185WA012050122200311000
B1804293412612N11718185WA012050122200311000
B1804343412612N11718185WA012050122200311000
B1804393412612N11718185WA012050122200311000
B1804443412612N11718185WA012050122200411000
B1804493412612N11718185WA012050122200511000
B1804543412612N11718185WA012050122200611000
B1804593412612N11718185WA012050122200311000
B1805043412612N11718185WA012050122200311000
B1805093412612N11718185WA012050122200311000
B1805143412612N11718185WA012050122200311000
B1805193412612N11718185WA012050122200511000
B1805243412612N11718185WA012050122200611000
B1805293412612N11718185WA012050122200611000
B1805343412612N11718185WA012050122200611000
B1805393412612N11718185WA012050122200611000
B1805443412612N11718185WA012050122200611000
B1805493412612N11718185WA012050122200611000
B1805543412612N11718185WA012050122200611000
B1805593412612N11718185WA012050122200611000
B1806043412612N11718185WA012050122200511000
B1806093412612N11718185WA012050122200411000
B1806143412612N11718185WA012050122200411000
B1806193412612N11718185WA012050122200511000
B1806243412612N11718185WA012050122200411000
B1806293412612N11718185WA012050122200411000
B1806343412612N11718185WA012050122200511000
B1806393412612N11718185WA012050122200511000
B1806443412612N11718185WA012050122200511000
B1806493412612N11718185WA012050122200511000
B1806543412612N11718185WA012050122200511000
B1806593412612N11718185WA012050122200511000
B1807043412612N11718185WA012050122200511000
B1807093412612N11718185WA012050122200511000
B1807143412612N11718185WA012050122200511000
B1807193412612N11718185WA012050122200511000
B1807243412612N11718185WA012050122200511000
B1807293412612N11718185WA012050122200511000
B1807343412612N11718185WA012050122200511000
B1807393412612N11718185WA012050122200511000
B1807443412612N11718185WA012050122200511000
B1807493412612N11718185WA012050122200511000
B1807543412612N11718185WA012050122200511000
B1807593412612N11718185WA012050122200511000
B1808043412612N11718185WA012050122200511000
B1808093412612N11718185WA012050122200511000
B1808143412612N11718185WA012050122200511000
B1808193412612N11718185WA012050122200511000
B1808243412612N11718185WA012050122200511000
B1808293412612N11718185WA012050122200511000
B1808343412612N11718185WA012050122200311000
B1808393412612N11718185WA012050122200311000
B1808443412612N11718185WA012050122200311000
B1808493412612N11718185WA012050122200311000
B1808543412612N11718185WA012050122200311000
B1808593412612N11718185WA012050122200311000
B1809043412612N11718185WA012050122200411000
B1809093412612N11718185WA012050122200411000
B1809143412612N11718185WA012050122100411000
B1809193412612N11718185WA012050122100311000
B1809243412612N11718185WA012050122200411000
B1809293412612N11718185WA012050122200311000
B1809343412612N11718185WA012050122200311000
B1809393412612N11718185WA012050122200511000
B1809443412612N11718185WA012050122100311000
B1809493412612N11718185WA012050122100311000
B1809543412612N11718185WA012050122100311000
B1809593412612N11718185WA012050122100311000
B1810043412612N11718185WA012050122100211000
B1810093412612N11718185WA012050122100211000
F18101407080911131718192830
B1810143412612N11718185WA012050122100410000
F1810190507080911131718192830
B1810193412612N11718185WA012050122100511000
B1810243412612N11718185WA012050122100511000
B1810293412612N11718185WA012050122100511000
B1810343412612N11718185WA012050122100511000
B1810393412612N11718185WA012050122100511000
B1810443412612N11718185WA012050122100511000
B1810493412612N11718185WA012050122100411000
B1810543412612N11718185WA012050122100511000
B1810593412612N11718185WA012050122100511000
B1811043412612N11718185WA012040122100511000
B1811093412612N11718185WA012050122100511000
B1811143412612N11718185WA012050122100511000
B1811193412612N11718185WA012040122100411000
B1811243412612N11718185WA012040122100411000
B1811293412612N11718185WA012040122100511000
B1811343412612N11718185WA012040122100411000
B1811393412612N11718185WA012040122100511000
B1811443412612N11718185WA012040122100311000
B1811493412612N11718185WA012040122100511000
B1811543412612N11718185WA012040122100411000
B1811593412612N11718185WA012040122100511000
B1812043412612N11718185WA012040122100511000
B1812093412612N11718185WA012040122100511000
B1812143412612N11718185WA012040122100411000
B1812193412612N11718185WA012040122100411000
B1812243412612N11718185WA012040122100311000
B1812293412612N11718185WA012040122100411000
B1812343412612N11718185WA012040122100511000
B1812393412612N11718185WA012040122100511000
B1812443412612N11718185WA012040122100511000
B1812493412612N11718185WA012040122100511000
B1812543412612N11718185WA012040122100511000
B1812593412612N11718185WA012040122100511000
B1813043412612N11718185WA012040122100511000
B1813093412612N11718185WA012040122100511000
B1813143412612N11718185WA012040122100511000
B1813193412612N11718185WA012040122100511000
B1813243412612N11718185WA012040122100511000
B1813293412612N11718185WA012040122100511000
B1813343412612N11718185WA012040122100511000
B1813393412612N11718185WA012040122100511000
B1813443412612N11718185WA012040122100511000
B1813493412612N11718185WA012040122100511000
B1813543412612N11718185WA012040122100511000
B1813593412612N11718185WA012040122100511000
B1814043412612N11718185WA012040122100511000
B1814093412612N11718185WA012040122100511000
B1814143412612N11718185WA012040122100511000
B1814193412612N11718185WA012040122100511000
B1814243412612N11718185WA012040122100511000
B1814293412612N11718185WA012040122100511000
B1814343412612N11718185WA012040122100511000
B1814393412612N11718185WA012040122100511000
B1814443412612N11718185WA012040122100511000
B1814493412612N11718185WA012040122100511000
F18145407080911131718192830
B1814543412612N11718185WA012040122100510000
B1814593412612N11718185WA012040122100510000
B1815043412612N11718185WA012040122100510000
B1815093412612N11718185WA012040122100510000
B1815143412612N11718185WA012040122100510000
B1815193412612N11718185WA012040122100510000
B1815243412612N11718185WA012040122100510000
B1815293412612N11718185WA012040122100510000
B1815343412612N11718185WA012040122100510000
B1815393412612N11718185WA012040122100510000
B1815443412612N11718185WA012040122100510000
B1815493412612N11718185WA012040122100510000
B1815543412612N11718185WA012040122100610000
B1815593412612N11718185WA012040122100510000
B1816043412612N11718185WA012040122100510000
B1816093412612N11718185WA012040122100510000
B1816143412612N11718185WA012040122100510000
B1816193412612N11718185WA012040122100510000
B1816243412612N11718185WA012040122100510000
B1816293412612N11718185WA012040122100510000
B1816343412612N11718185WA012040122100510000
B1816393412612N11718185WA012040122100510000
B1816443412612N11718185WA012040122100510000
B1816493412612N11718185WA012040122100510000
B1816543412612N11718185WA012040122100510000
B1816593412612N11718185WA012040122100510000
B1817043412612N11718185WA012040122100510000
B1817093412612N11718185WA012040122100510000
B1817143412612N11718185WA012040122100510000
B1817193412612N11718185WA012040122100510000
B1817243412612N11718185WA012040122100510000
B1817293412612N11718185WA012040122100510000
B1817343412612N11718185WA012040122100510000
B1817393412612N11718185WA012040122100510000
B1817443412612N11718185WA012040122100510000
B1817493412612N11718185WA012040122100510000
B1817543412612N11718185WA012040122100510000
B1817593412612N11718185WA012040122100510000
B1818043412612N11718185WA012040122100410000
B1818093412612N11718185WA012040122100410000
B1818143412612N11718185WA012040122100410000
B1818193412612N11718185WA012040122100410000
B1818243412612N11718185WA012040122100410000
B1818293412612N11718185WA012040122100410000
B1818343412612N11718185WA012040122100410000
B1818393412612N11718185WA012040122100410000
B1818443412612N11718185WA012040122100410000
B1818493412612N11718185WA012040122100410000
B1818543412612N11718185WA012040122100410000
B1818593412612N11718185WA012040122100410000
B1819043412612N11718185WA012040122100410000
B1819093412612N11718185WA012040122100510000
B1819143412612N11718185WA012040122100410000
B1819193412612N11718185WA012040122100410000
B1819243412612N11718185WA012040122100410000
B1819293412612N11718185WA012040122100410000
B1819343412612N11718185WA012040122100510000
B1819393412612N11718185WA012040122100610000
B1819443412612N11718185WA012040122100610000
B1819493412612N11718185WA012040122100610000
B1819543412612N11718185WA012040122100610000
B1819593412612N11718185WA012040122100610000
B1820043412612N11718185WA012040122100610000
B1820093412612N11718185WA012040122100610000
B1820143412612N11718185WA012040122100610000
B1820193412612N11718185WA012040122100610000
B1820243412612N11718185WA012040122100610000
B1820293412612N11718185WA012040122100610000
B1820343412612N11718185WA012040122100610000
B1820393412612N11718185WA012040122100610000
B1820443412612N11718185WA012040122100610000
B1820493412612N11718185WA012040122100610000
B1820543412612N11718185WA012040122100610000
B1820593412612N11718185WA012040122100610000
B1821043412612N11718185WA012040122100610000
B1821093412612N11718185WA012040122100610000
B1821143412612N11718185WA012040122100610000
B1821193412612N11718185WA012040122100610000
B1821243412612N11718185WA012040122100610000
B1821293412612N11718185WA012040122100610000
B1821343412612N11718185WA012040122100610000
B1821393412612N11718185WA012040122100610000
B1821443412612N11718185WA012040122100610000
B1821493412612N11718185WA012040122100610000
B1821543412612N11718185WA012040122100610000
B1821593412612N11718185WA012040122100610000
B1822043412612N11718185WA012040122100610000
B1822093412612N11718185WA012040122100610000
B1822143412612N11718185WA012040122100610000
B1822193412612N11718185WA012040122100610000
B1822243412612N11718185WA012040122100610000
B1822293412612N11718185WA012040122100610000
B1822343412612N11718185WA012040122100610000
B1822393412612N11718185WA012040122100610000
B1822443412612N11718185WA012040122100610000
B1822493412612N11718185WA012040122100610000
B1822543412612N11718185WA012040122100610000
B1822593412612N11718185WA012040122100610000
B1823043412612N11718185WA012040122100610000
B1823093412612N11718185WA012040122100610000
B1823143412612N11718185WA012040122100610000
B1823193412612N11718185WA012040122100610000
B1823243412612N11718185WA012040122100610000
B1823293412612N11718185WA012040122100610000
B1823343412612N11718185WA012040122100610000
B1823393412612N11718185WA012040122100610000
B1823443412612N11718185WA012040122100610000
B1823493412612N11718185WA012040122100610000
B1823543412612N11718185WA012040122100610000
B1823593412612N11718185WA012040122100610000
B1824043412612N11718185WA012040122100710000
B1824093412612N11718185WA012040122100610000
B1824143412612N11718185WA012040122100610000
B1824193412612N11718185WA012040122100610000
B1824243412612N11718185WA012040122100610000
B1824293412612N11718185WA012040122100610000
B1824343412612N11718185WA012040122100610000
B1824393412612N11718185WA012040122100610000
B1824443412612N11718185WA012040122100610000
B1824493412612N11718185WA012040122100610000
B1824543412612N11718185WA012040122100510000
B1824593412612N11718185WA012040122100510000
B1825043412612N11718185WA012040122100610000
B1825093412612N11718185WA012040122100610000
B1825143412612N11718185WA012040122100610000
B1825193412612N11718185WA012040122100610000
B1825243412612N11718185WA012040122100610000
B1825293412612N11718185WA012040122100610000
B1825343412612N11718185WA012040122100610000
B1825393412612N11718185WA012040122100610000
B1825443412612N11718185WA012040122100610000
B1825493412612N11718185WA012040122100610000
B1825543412612N11718185WA012040122100610000
B1825593412612N11718185WA012040122100610000
B1826043412612N11718185WA012040122100610000
B1826093412612N11718185WA012040122100610000
B1826143412612N11718185WA012040122100610000
B1826193412612N11718185WA012040122100610000
B1826243412612N11718185WA012040122100610000
B1826293412612N11718185WA012040122100510000
B1826343412612N11718185WA012040122100510000
B1826393412612N11718185WA012040122100510000
B1826443412612N11718185WA012040122100510000
B1826493412612N11718185WA012040122100510000
B1826543412612N11718185WA012040122100510000
B1826593412612N11718185WA012040122100510000
B1827043412612N11718185WA012040122100310000
B1827093412612N11718185WA012040122100310000
B1827143412612N11718185WA012040122100410000
B1827193412612N11718185WA012040122100410000
B1827243412612N11718185WA012050122100410000
B1827293412612N11718185WA012050122100510000
B1827343412612N11718185WA012050122100410000
B1827393412612N11718185WA012050122100510000
B1827443412612N11718185WA012050122100510000
B1827493412612N11718185WA012050122100510000
B1827543412612N11718185WA012050122100510000
B1827593412612N11718185WA012050122100510000
F182804070809111718192830
B1828043412612N11718185WA012050122100509000
F18280907080911131718192830
B1828093412612N11718185WA012050122100410000
B1828143412612N11718185WA012050122100510000
B1828193412612N11718185WA012050122100410000
B1828243412612N11718185WA012050122100710000
B1828293412612N11718185WA012050122100410000
B1828343412612N11718185WA012050122100510000
B1828393412612N11718185WA012050122100410000
B1828443412612N11718185WA012050122100410000
B1828493412612N11718185WA012050122100410000
B1828543412612N11718185WA012050122100310000
B1828593412612N11718185WA012060122100310000
B1829043412612N11718185WA012060122100410000
B1829093412612N11718185WA012060122100510000
B1829143412612N11718185WA012060122100510000
B1829193412612N11718185WA012060122100410000
B1829243412612N11718185WA012060122100410000
B1829293412612N11718185WA012060122100510000
B1829343412612N11718185WA012060122100510000
B1829393412612N11718185WA012060122100510000
B1829443412612N11718185WA012060122100510000
B1829493412612N11718185WA012060122100510000
B1829543412612N11718185WA012060122100510000
B1829593412612N11718185WA012060122100710000
B1830043412612N11718185WA012060122100710000
B1830093412612N11718185WA012060122100710000
B1830143412612N11718185WA012060122100710000
B1830193412612N11718185WA012060122100610000
B1830243412612N11718185WA012060122100610000
B1830293412612N11718185WA012060122100310000
B1830343412612N11718185WA012060122100410000
B1830393412612N11718185WA012060122100410000
B1830443412612N11718185WA012060122100510000
B1830493412612N11718185WA012060122100410000
B1830543412612N11718185WA012060122100410000
B1830593412612N11718185WA012060122100410000
B1831043412612N11718185WA012060122100410000
B1831093412612N11718185WA012060122100410000
B1831143412612N11718185WA012060122100710000
B1831193412612N11718185WA012060122100710000
B1831243412612N11718185WA012060122100710000
B1831293412612N11718185WA012060122100710000
B1831343412612N11718185WA012060122100710000
B1831393412612N11718185WA012060122100710000
B1831443412612N11718185WA012060122100710000
B1831493412612N11718185WA012060122100710000
B1831543412612N11718185WA012060122100710000
B1831593412612N11718185WA012060122100710000
B1832043412612N11718185WA012060122100710000
B1832093412612N11718185WA012060122100710000
B1832143412612N11718185WA012070122100710000
B1832193412612N11718185WA012070122100710000
B1832243412612N11718185WA012070122100710000
B1832293412612N11718185WA012070122100710000
B1832343412612N11718185WA012070122100710000
B1832393412612N11718185WA012070122100710000
B1832443412612N11718185WA012070122100710000
B1832493412612N11718185WA012070122100710000
B1832543412612N11718185WA012070122100710000
B1832593412612N11718185WA012070122100710000
B1833043412612N11718185WA012070122100710000
B1833093412612N11718185WA012070122100710000
B1833143412612N11718185WA012070122100710000
B1833193412612N11718185WA012070122100810000
B1833243412612N11718185WA012070122100810000
B1833293412612N11718185WA012070122100510000
B1833343412612N11718185WA012070122100410000
B1833393412612N11718185WA012070122100710000
B1833443412612N11718185WA012070122100710000
B1833493412612N11718185WA012070122100710000
B1833543412612N11718185WA012070122100710000
B1833593412612N11718185WA012070122100710000
B1834043412612N11718185WA012070122100710000
B1834093412612N11718185WA012070122100710000
B1834143412612N11718185WA012060122100810000
B1834193412612N11718185WA012070122100810000
B1834243412612N11718185WA012070122100810000
B1834293412612N11718185WA012060122100810000
B1834343412612N11718185WA012070122100710000
B1834393412612N11718185WA012060122100710000
B1834443412612N11718185WA012060122100710000
B1834493412612N11718185WA012060122100710000
B1834543412612N11718185WA012060122100710000
B1834593412612N11718185WA012060122100710000
B1835043412612N11718185WA012060122100710000
B1835093412612N11718185WA012060122100710000
B1835143412612N11718185WA012060122100710000
B1835193412612N11718185WA012060122100710000
B1835243412612N11718185WA012060122100710000
B1835293412612N11718185WA012060122100710000
B1835343412612N11718185WA012060122100710000
B1835393412612N11718185WA012060122100710000
B1835443412612N11718185WA012060122100710000
B1835493412612N11718185WA012060122100710000
B1835543412612N11718185WA012060122100710000
B1835593412612N11718185WA012060122100710000
B1836043412612N11718185WA012060122100710000
B1836093412612N11718185WA012060122100710000
B1836143412612N11718185WA012060122100710000
B1836193412612N11718185WA012060122100610000
B1836243412612N11718185WA012060122100410000
B1836293412612N11718185WA012060122100410000
B1836343412612N11718185WA012060122100710000
B1836393412612N11718185WA012060122100710000
B1836443412612N11718185WA012060122100510000
B1836493412612N11718185WA012060122100710000
B1836543412612N11718185WA012060122100710000
B1836593412612N11718185WA012060122100510000
B1837043412612N11718185WA012060122100810000
B1837093412612N11718185WA012050122100810000
B1837143412612N11718185WA012050122100510000
B1837193412612N11718185WA012050122100710000
B1837243412612N11718185WA012060122100710000
B1837293412612N11718185WA012060122100810000
B1837343412612N11718185WA012060122100810000
B1837393412612N11718185WA012050122100810000
B1837443412612N11718185WA012050122100810000
B1837493412612N11718185WA012050122100810000
B1837543412612N11718185WA012050122100810000
B1837593412612N11718185WA012050122100810000
B1838043412612N11718185WA012050122100410000
B1838093412612N11718185WA012050122100710000
B1838143412612N11718185WA012050122100810000
B1838193412612N11718185WA012050122100810000
B1838243412612N11718185WA012050122100810000
B1838293412612N11718185WA012060122100810000
B1838343412612N11718185WA012060122100810000
B1838393412612N11718185WA012060122100810000
B1838443412612N11718185WA012060122100810000
B1838493412612N11718185WA012050122100810000
B1838543412612N11718185WA012050122100410000
B1838593412612N11718185WA012060122100810000
B1839043412612N11718185WA012060122100610000
B1839093412612N11718185WA012050122100510000
B1839143412612N11718185WA012050122100510000
B1839193412612N11718185WA012050122100410000
B1839243412612N11718185WA012050122100410000
B1839293412612N11718185WA012050122100410000
B1839343412612N11718185WA012050122100410000
B1839393412612N11718185WA012050122100410000
B1839443412612N11718185WA012050122100410000
B1839493412612N11718185WA012050122100410000
B1839543412612N11718185WA012050122100410000
B1839593412612N11718185WA012050122100410000
B1840043412612N11718185WA012050122100410000
B1840093412612N11718185WA012050122100410000
B1840143412612N11718185WA012050122100410000
B1840193412612N11718185WA012050122100410000
B1840243412612N11718185WA012050122100310000
B1840293412612N11718185WA012050122100310000
B1840343412612N11718185WA012050122100310000
B1840393412612N11718185WA012050122100310000
F184044070811131718192830
B1840443412612N11718185WA012050122100309000
B1840493412612N11718185WA012050122100309000
F1840540711131718192830
B1840543412612N11718185WA012050122100908000
B1840593412612N11718185WA012050122100808000
B1841043412612N11718185WA012050122100808000
B1841093412612N11718185WA012050122100808000
B1841143412612N11718185WA012050122100808000
B1841193412612N11718185WA012050122100808000
B1841243412612N11718185WA012050122100808000
B1841293412612N11718185WA012050122100808000
B1841343412612N11718185WA012050122100808000
B1841393412612N11718185WA012050122100808000
B1841443412612N11718186WA012050122100808000
B1841493412612N11718186WA012050122100808000
B1841543412612N11718186WA012050122100808000
B1841593412612N11718186WA012050122100808000
B1842043412612N11718186WA012050122100808000
B1842093412612N11718186WA012050122100508000
B1842143412612N11718186WA012050122100508000
B1842193412612N11718186WA012050122100308000
B1842243412612N11718186WA012050122100708000
B1842293412612N11718186WA012050122100808000
B1842343412612N11718186WA012050122100708000
B1842393412612N11718186WA012050122100808000
B1842443412612N11718186WA012050122100708000
B1842493412612N11718186WA012050122100708000
B1842543412612N11718186WA012050122100808000
B1842593412612N11718186WA012050122100708000
B1843043412612N11718186WA012050122100708000
B1843093412612N11718186WA012050122100608000
B1843143412612N11718186WA012040122100708000
B1843193412612N11718186WA012040122100708000
B1843243412612N11718186WA012040122100808000
B1843293412612N11718186WA012050122100708000
B1843343412612N11718186WA012050122100708000
B1843393412612N11718186WA012050122100708000
B1843443412612N11718186WA012050122100708000
B1843493412612N11718186WA012040122000708000
B1843543412612N11718186WA012040122000508000
B1843593412612N11718186WA012050122000508000
B1844043412612N11718186WA012050122000508000
B1844093412612N11718186WA012050122000708000
B1844143412612N11718186WA012050122000508000
B1844193412612N11718186WA012050122000708000
B1844243412612N11718186WA012050122000808000
B1844293412612N11718186WA012050122000808000
B1844343412612N11718186WA012050122000808000
B1844393412612N11718186WA012050122000808000
B1844443412612N11718186WA012050122000708000
B1844493412612N11718186WA012050122000808000
B1844543412612N11718186WA012050122000808000
B1844593412612N11718186WA012050122000708000
B1845043412612N11718186WA012050122000708000
B1845093412612N11718186WA012050122000508000
B1845143412612N11718186WA012050122000708000
B1845193412612N11718186WA012050122000808000
B1845243412612N11718186WA012050122000708000
B1845293412612N11718186WA012050122000708000
B1845343412612N11718186WA012050122000708000
B1845393412612N11718186WA012050122000708000
B1845443412612N11718186WA012050122000708000
B1845493412612N11718186WA012050122000708000
B1845543412612N11718186WA012050122000708000
B1845593412612N11718186WA012050122000508000
B1846043412612N11718186WA012050122000408000
B1846093412612N11718186WA012050122000508000
B1846143412612N11718186WA012050122000408000
B1846193412612N11718186WA012050122000708000
B1846243412612N11718186WA012050122000408000
B1846293412612N11718186WA012050122000508000
B1846343412612N11718186WA012050122000608000
B1846393412612N11718186WA012050122000808000
B1846443412612N11718185WA012050122000808000
B1846493412612N11718185WA012050122000708000
B1846543412612N11718185WA012040122000708000
B1846593412612N11718185WA012040122000808000
B1847043412612N11718185WA012040122000508000
B1847093412612N11718185WA012040122000508000
B1847143412612N11718185WA012040122000708000
B1847193412612N11718185WA012040122000708000
B1847243412612N11718185WA012040122000708000
B1847293412612N11718185WA012040122000808000
B1847343412612N11718185WA012040122000708000
B1847393412612N11718185WA012040122000508000
B1847443412612N11718185WA012040122000808000
B1847493412612N11718185WA012040122000808000
B1847543412612N11718185WA012040122000808000
B1847593412612N11718185WA012040122000708000
B1848043412612N11718185WA012040122000808000
B1848093412612N11718185WA012040122000808000
B1848143412612N11718185WA012040122000808000
B1848193412612N11718185WA012040122000508000
B1848243412612N11718185WA012040122000508000
B1848293412612N11718185WA012050122000708000
B1848343412612N11718185WA012040122000608000
B1848393412612N11718186WA012040122000708000
B1848443412612N11718186WA012050122000708000
B1848493412612N11718186WA012050122000808000
B1848543412612N11718186WA012050122000808000
B1848593412612N11718185WA012050122000508000
B1849043412612N11718186WA012050122000708000
B1849093412612N11718186WA012050122000508000
B1849143412612N11718186WA012050122000508000
B1849193412612N11718186WA012050122000408000
B1849243412612N11718186WA012040122000508000
B1849293412612N11718186WA012040122000508000
B1849343412612N11718186WA012040122000708000
B1849393412612N11718186WA012040122000808000
B1849443412612N11718186WA012040122000708000
B1849493412612N11718186WA012040122000808000
B1849543412612N11718186WA012040122000508000
B1849593412612N11718186WA012040122000708000
B1850043412612N11718186WA012040122000708000
B1850093412612N11718186WA012040122000708000
B1850143412612N11718186WA012040122000708000
B1850193412612N11718186WA012040122000708000
B1850243412612N11718186WA012040122000708000
B1850293412612N11718186WA012040122000708000
B1850343412612N11718186WA012040122000508000
B1850393412612N11718186WA012040122000708000
B1850443412612N11718186WA012040122000708000
B1850493412612N11718186WA012040122000808000
B1850543412612N11718186WA012040122000808000
B1850593412612N11718186WA012040122000708000
B1851043412612N11718186WA012040122000708000
B1851093412612N11718186WA012040122000708000
B1851143412612N11718186WA012040122000708000
B1851193412612N11718186WA012040122000708000
B1851243412612N11718186WA012040122000708000
B1851293412612N11718186WA012040122000708000
B1851343412612N11718186WA012040122000708000
B1851393412612N11718186WA012040122000708000
B1851443412612N11718186WA012040122000508000
B1851493412612N11718186WA012040122000508000
B1851543412612N11718186WA012050122000508000
B1851593412612N11718186WA012050122000508000
B1852043412612N11718186WA012050122000508000
B1852093412612N11718186WA012040122000408000
B1852143412612N11718186WA012040122000708000
B1852193412612N11718186WA012040122000708000
B1852243412612N11718186WA012050122000608000
B1852293412612N11718186WA012050122000708000
B1852343412612N11718186WA012050122000708000
B1852393412612N11718186WA012050122000808000
B1852443412612N11718186WA012050122000708000
B1852493412612N11718186WA012050122000708000
B1852543412612N11718186WA012050122000808000
B1852593412612N11718186WA012040122000808000
B1853043412612N11718186WA012050122000708000
B1853093412612N11718186WA012050122000708000
B1853143412612N11718186WA012050122000708000
B1853193412612N11718186WA012050122000708000
B1853243412612N11718186WA012050122000708000
B1853293412612N11718186WA012050122000708000
B1853343412612N11718186WA012050122000708000
B1853393412612N11718186WA012050122000708000
B1853443412612N11718186WA012050122000708000
B1853493412612N11718186WA012050122000708000
B1853543412612N11718186WA012050122000708000
B1853593412612N11718186WA012050122000708000
B1854043412612N11718186WA012050122000708000
B1854093412612N11718186WA012050122000708000
B1854143412612N11718186WA012050122000708000
B1854193412612N11718186WA012050122000608000
B1854243412612N11718186WA012050122000708000
B1854293412612N11718186WA012050122000708000
B1854343412612N11718186WA012050122000708000
B1854393412612N11718186WA012050122000708000
B1854443412612N11718186WA012050122000708000
B1854493412612N11718186WA012050122000708000
B1854543412612N11718186WA012050122000708000
B1854593412612N11718186WA012050122000708000
B1855043412612N11718186WA012050122000708000
B1855093412612N11718186WA012050122000708000
B1855143412612N11718186WA012050122000708000
B1855193412612N11718186WA012050122000708000
B1855243412612N11718186WA012050122000608000
B1855293412612N11718186WA012050122000608000
B1855343412612N11718186WA012050122000708000
B1855393412612N11718186WA012050122000708000
B1855443412612N11718186WA012050122000708000
B1855493412612N11718186WA012050122000708000
B1855543412612N11718186WA012050122000708000
B1855593412612N11718186WA012050122000708000
B1856043412612N11718186WA012050122000708000
B1856093412612N11718186WA012050122000708000
B1856143412612N11718186WA012050122000708000
B1856193412612N11718186WA012050122000708000
B1856243412612N11718186WA012050122000708000
B1856293412612N11718186WA012050122000708000
B1856343412612N11718186WA012050122000608000
B1856393412612N11718186WA012050122000708000
B1856443412612N11718186WA012050122000708000
B1856493412612N11718186WA012050122000708000
B1856543412612N11718186WA012050122000708000
B1856593412612N11718186WA012050122000708000
B1857043412612N11718186WA012050122000708000
B1857093412612N11718186WA012050122000708000
B1857143412612N11718186WA012050122000708000
B1857193412612N11718186WA012050122000708000
B1857243412612N11718186WA012050122000708000
B1857293412612N11718186WA012050122000708000
B1857343412612N11718186WA012050122000708000
B1857393412612N11718186WA012050122000708000
B1857443412612N11718186WA012050122000708000
B1857493412612N11718186WA012050122000708000
B1857543412612N11718186WA012050122000708000
B1857593412612N11718186WA012050122000708000
B1858043412612N11718186WA012050122000708000
B1858093412612N11718186WA012050122000708000
B1858143412612N11718186WA012050122000708000
B1858193412612N11718186WA012050122000708000
B1858243412612N11718186WA012050122000708000
B1858293412612N11718186WA012050122000708000
B1858343412612N11718186WA012060122000708000
B1858393412612N11718186WA012060122000708000
B1858443412612N11718186WA012050122000708000
B1858493412612N11718186WA012050122000708000
B1858543412612N11718186WA012050122000708000
B1858593412612N11718186WA012050122000708000
B1859043412612N11718186WA012050122000708000
B1859093412612N11718186WA012050122000708000
B1859143412612N11718186WA012050122000708000
B1859193412612N11718186WA012050122000708000
B1859243412612N11718186WA012050122000708000
B1859293412612N11718186WA012050122000708000
B1859343412612N11718186WA012050122000708000
B1859393412612N11718186WA012050122000708000
B1859443412612N11718186WA012050122000708000
B1859493412612N11718186WA012050122000708000
B1859543412612N11718186WA012050122000708000
B1859593412612N11718186WA012050122000708000
B1900043412612N11718186WA012050122000708000
B1900093412612N11718186WA012050122000708000
B1900143412612N11718186WA012050122000608000
B1900193412612N11718186WA012050122000608000
B1900243412612N11718186WA012050122000608000
B1900293412612N11718186WA012050122000608000
B1900343412612N11718186WA012050122000708000
B1900393412612N11718186WA012050122000708000
B1900443412612N11718186WA012050122000708000
B1900493412612N11718186WA012050122000708000
B1900543412612N11718186WA012050122000608000
B1900593412612N11718186WA012050122000608000
B1901043412612N11718186WA012050122000608000
B1901093412612N11718186WA012050122000608000
B1901143412612N11718186WA012050122000708000
B1901193412611N11718186WA012050122000708000
B1901243412611N11718186WA012050122000708000
B1901293412611N11718186WA012050122000708000
B1901343412611N11718186WA012050122000608000
B1901393412611N11718186WA012050122000608000
B1901443412611N11718186WA012050122000608000
B1901493412611N11718186WA012050122000608000
B1901543412612N11718186WA012050122000608000
B1901593412612N11718186WA012050122000708000
B1902043412612N11718186WA012050122000708000
B1902093412612N11718186WA012050122000608000
B1902143412612N11718186WA012050122000608000
B1902193412612N11718186WA012050122000608000
B1902243412612N11718186WA012050122000608000
B1902293412612N11718185WA012050122000608000
B1902343412612N11718185WA012050122000708000
B1902393412612N11718185WA012050122000708000
B1902443412612N11718185WA012050122000708000
B1902493412612N11718185WA012050122000708000
B1902543412612N11718185WA012050122000708000
B1902593412612N11718186WA012050122000708000
B1903043412612N11718186WA012050122000708000
B1903093412612N11718186WA012050122000708000
B1903143412612N11718186WA012050122000708000
B1903193412612N11718186WA012050122000708000
B1903243412612N11718186WA012050122000708000
B1903293412612N11718186WA012050122000608000
B1903343412612N11718186WA012050122000608000
B1903393412612N11718186WA012050122000608000
B1903443412612N11718186WA012050122000608000
B1903493412611N11718186WA012050122000608000
B1903543412611N11718186WA012050122000608000
B1903593412611N11718186WA012050122000608000
B1904043412611N11718186WA012050122000608000
B1904093412611N11718186WA012050122000608000
B1904143412611N11718186WA012050122000608000
B1904193412612N11718186WA012050122000608000
B1904243412612N11718186WA012050122000608000
B1904293412612N11718186WA012050122000608000
B1904343412612N11718186WA012050122000608000
B1904393412612N11718186WA012050122000608000
B1904443412612N11718186WA012050122000708000
B1904493412611N11718186WA012050122000708000
B1904543412611N11718186WA012050122000708000
B1904593412611N11718186WA012050122000708000
B1905043412611N11718186WA012050122000608000
B1905093412611N11718186WA012050122000608000
B1905143412611N11718186WA012050122000608000
B1905193412611N11718186WA012050122000608000
B1905243412611N11718186WA012050122000608000
B1905293412611N11718186WA012050122000608000
B1905343412611N11718186WA012050122000608000
B1905393412611N11718186WA012050122000608000
B1905443412611N11718186WA012050122000608000
B1905493412611N11718186WA012050122000608000
B1905543412611N11718186WA012050122000608000
B1905593412611N11718186WA012050122000708000
B1906043412611N11718186WA012050122000708000
B1906093412611N11718186WA012050122000708000
B1906143412611N11718186WA012050122000708000
B1906193412611N11718186WA012050122000708000
B1906243412611N11718186WA012050122000708000
B1906293412611N11718186WA012050122000708000
B1906343412611N11718186WA012050122000708000
B1906393412611N11718186WA012050122000708000
B1906443412611N11718186WA012050122000708000
B1906493412611N11718186WA012050122000708000
B1906543412611N11718186WA012050122000708000
B1906593412611N11718186WA012050122000708000
B1907043412611N11718186WA012050122000708000
B1907093412611N11718186WA012050122000708000
B1907143412611N11718186WA012050122000708000
B1907193412611N11718186WA012050122000708000
B1907243412611N11718186WA012050122000708000
B1907293412611N11718186WA012050122000708000
B1907343412611N11718186WA012050122000708000
B1907393412611N11718186WA012050122000608000
B1907443412611N11718186WA012050122000608000
B1907493412611N11718186WA012050122000608000
B1907543412611N11718186WA012050122000608000
B1907593412611N11718186WA012050122000608000
B1908043412611N11718186WA012050122000708000
B1908093412611N11718186WA012050122000708000
B1908143412611N11718186WA012050122000708000
B1908193412611N11718186WA012050122000708000
B1908243412611N11718186WA012050122000708000
B1908293412611N11718186WA012050122000608000
B1908343412611N11718186WA012050122000708000
B1908393412611N11718186WA012050122000708000
B1908443412611N11718186WA012050122000708000
B1908493412611N11718186WA012050122000708000
B1908543412611N11718186WA012050122000708000
B1908593412611N11718186WA012050122000708000
B1909043412611N11718186WA012050122000708000
B1909093412611N11718186WA012050122000708000
B1909143412611N11718186WA012050122000708000
B1909193412611N11718186WA012050122000708000
B1909243412611N11718186WA012050122000708000
B1909293412611N11718186WA012050122000708000
B1909343412611N11718186WA012050122000708000
B1909393412611N11718186WA012050122000708000
B1909443412611N11718186WA012050122000708000
B1909493412611N11718186WA012050122000708000
B1909543412611N11718186WA012050122000708000
B1909593412611N11718186WA012050122000708000
B1910043412611N11718186WA012050122000708000
B1910093412611N11718186WA012050122000708000
B1910143412611N11718186WA012050122000708000
B1910193412611N11718186WA012050122000708000
B1910243412611N11718186WA012050122000708000
B1910293412611N11718186WA012050122000708000
B1910343412611N11718186WA012050122000708000
B1910393412611N11718186WA012050122000708000
B1910443412611N11718186WA012050122000708000
B1910493412611N11718186WA012050122000708000
B1910543412611N11718186WA012050122000708000
B1910593412611N11718186WA012050122000608000
B1911043412611N11718186WA012050122000608000
B1911093412611N11718186WA012050122000708000
B1911143412611N11718186WA012050122000708000
B1911193412611N11718186WA012050122000708000
B1911243412611N11718186WA012050122000708000
B1911293412611N11718186WA012050122000708000
B1911343412611N11718186WA012060122000708000
B1911393412611N11718186WA012060122000708000
B1911443412611N11718186WA012060122000708000
B1911493412611N11718186WA012060122000608000
B1911543412611N11718186WA012060122000608000
B1911593412611N11718186WA012060122000708000
B1912043412611N11718186WA012060122000708000
B1912093412611N11718186WA012060122000708000
B1912143412611N11718186WA012060122000708000
B1912193412611N11718186WA012060122000708000
B1912243412611N11718186WA012060122000708000
B1912293412611N11718186WA012060122000708000
B1912343412611N11718186WA012060122000708000
B1912393412611N11718186WA012060122000708000
B1912443412611N11718186WA012060122000708000
B1912493412611N11718186WA012060122000708000
B1912543412611N11718186WA012060122000708000
B1912593412611N11718186WA012060122000708000
B1913043412611N11718186WA012060122000708000
B1913093412611N11718186WA012060122000708000
B1913143412611N11718186WA012060122000708000
B1913193412611N11718186WA012060122000708000
B1913243412611N11718186WA012060122000708000
B1913293412611N11718186WA012060122000708000
B1913343412611N11718186WA012060122000708000
B1913393412611N11718186WA012060122000708000
B1913443412611N11718186WA012060122000708000
B1913493412611N11718186WA012060122000708000
B1913543412611N11718186WA012060122000708000
B1913593412611N11718186WA012060122000708000
B1914043412611N11718186WA012060122000708000
B1914093412611N11718186WA012060122000708000
B1914143412611N11718186WA012060122000708000
B1914193412611N11718186WA012060122000708000
B1914243412611N11718186WA012060122000708000
B1914293412611N11718186WA012060122000708000
B1914343412611N11718186WA012060122000708000
B1914393412611N11718186WA012060122000708000
B1914443412611N11718186WA012060122000708000
B1914493412611N11718186WA012060122000708000
B1914543412612N11718186WA012060122000808000
B1914593412612N11718186WA012060122000708000
B1915043412612N11718186WA012060122000408000
B1915093412612N11718186WA012060122000708000
B1915143412612N11718186WA012060122000708000
B1915193412612N11718186WA012060122000708000
B1915243412612N11718186WA012060122000708000
B1915293412612N11718186WA012060122000708000
B1915343412612N11718186WA012060122000708000
B1915393412612N11718186WA012060122000708000
B1915443412612N11718186WA012060122000708000
B1915493412612N11718186WA012060122000708000
B1915543412611N11718186WA012060122000708000
B1915593412612N11718186WA012060122000708000
B1916043412611N11718186WA012060122000708000
B1916093412612N11718186WA012060122000708000
B1916143412612N11718186WA012060122000708000
B1916193412612N11718186WA012060122000708000
B1916243412612N11718186WA012060122000808000
B1916293412612N11718186WA012060122000808000
B1916343412612N11718186WA012060122000808000
B1916393412612N11718186WA012060122000808000
B1916443412612N11718186WA012060122000808000
B1916493412612N11718186WA012060122000808000
B1916543412612N11718186WA012060122000808000
B1916593412612N11718186WA012060122000808000
B1917043412612N11718186WA012060122000808000
B1917093412612N11718186WA012060122000808000
B1917143412611N11718186WA012060122000808000
B1917193412612N11718186WA012060122000808000
B1917243412612N11718186WA012060122000808000
B1917293412612N11718186WA012060122000808000
B1917343412612N11718186WA012060122000808000
B1917393412612N11718186WA012060122000808000
B1917443412612N11718186WA012060122000808000
B1917493412612N11718186WA012060122000808000
B1917543412612N11718186WA012060122000808000
B1917593412612N11718186WA012060122000808000
B1918043412612N11718186WA012060122000808000
B1918093412612N11718186WA012060122000808000
B1918143412612N11718186WA012060122000808000
B1918193412612N11718186WA012060122000808000
B1918243412612N11718186WA012060122000808000
B1918293412612N11718186WA012060122000708000
B1918343412612N11718186WA012060122000708000
B1918393412612N11718186WA012060122000708000
B1918443412612N11718186WA012060122000708000
B1918493412612N11718186WA012060122000708000
B1918543412612N11718186WA012060122000708000
B1918593412612N11718186WA012060122000708000
B1919043412612N11718186WA012060122000708000
B1919093412612N11718186WA012060122000708000
B1919143412612N11718186WA012060122000708000
B1919193412612N11718186WA012060122000708000
B1919243412612N11718186WA012060122000708000
B1919293412612N11718186WA012060122000708000
B1919343412612N11718186WA012060122000708000
B1919393412612N11718186WA012060122000708000
B1919443412612N11718186WA012060122000708000
B1919493412612N11718186WA012060122000708000
B1919543412612N11718186WA012060122000708000
B1919593412612N11718186WA012060122000708000
B1920043412612N11718186WA012060122000708000
B1920093412612N11718186WA012060122000708000
B1920143412612N11718186WA012060122000708000
B1920193412612N11718186WA012060122000708000
B1920243412612N11718186WA012060122000708000
B1920293412612N11718186WA012060122000708000
B1920343412612N11718186WA012060122000708000
B1920393412612N11718186WA012060122000708000
B1920443412612N11718186WA012060122000708000
B1920493412612N11718186WA012060122000708000
B1920543412612N11718186WA012060122000708000
B1920593412612N11718186WA012060122000708000
B1921043412612N11718186WA012060122000708000
B1921093412612N11718186WA012060122000708000
B1921143412612N11718186WA012060122000708000
B1921193412612N11718186WA012060122000708000
B1921243412612N11718186WA012060122000708000
B1921293412612N11718186WA012060122000708000
B1921343412612N11718186WA012060122000708000
B1921393412612N11718186WA012060122000708000
B1921443412612N11718186WA012060122000708000
B1921493412612N11718186WA012060122000708000
B1921543412612N11718186WA012060122000708000
B1921593412612N11718186WA012060122000708000
B1922043412612N11718186WA012060122000708000
B1922093412612N11718186WA012060122000708000
B1922143412612N11718186WA012060122000708000
B1922193412612N11718186WA012060122000708000
B1922243412612N11718186WA012060122000708000
B1922293412612N11718186WA012060122000708000
B1922343412612N11718186WA012060122000708000
B1922393412612N11718186WA012060122000708000
B1922443412612N11718186WA012060122000708000
B1922493412612N11718186WA012060122000708000
B1922543412612N11718186WA012060122000708000
B1922593412612N11718186WA012060122000708000
B1923043412612N11718186WA012060122000708000
B1923093412612N11718186WA012060122000708000
B1923143412612N11718186WA012070122000708000
B1923193412612N11718186WA012060122000708000
B1923243412612N11718186WA012060122000708000
B1923293412612N11718186WA012060122000708000
B1923343412612N11718186WA012060122000708000
B1923393412612N11718186WA012060122000708000
B1923443412612N11718186WA012060122000608000
B1923493412612N11718186WA012060122000608000
B1923543412612N11718186WA012060122000708000
B1923593412612N11718186WA012060122000708000
B1924043412612N11718186WA012060122100708000
B1924093412612N11718186WA012060122100708000
B1924143412612N11718186WA012060122100608000
B1924193412612N11718186WA012060122100608000
B1924243412612N11718186WA012060122100708000
B1924293412612N11718186WA012060122100708000
B1924343412612N11718186WA012060122100708000
B1924393412612N11718186WA012060122100708000
B1924443412612N11718186WA012060122100708000
B1924493412612N11718186WA012060122100708000
B1924543412612N11718186WA012060122100708000
B1924593412612N11718186WA012060122100708000
B1925043412612N11718186WA012060122100708000
B1925093412612N11718186WA012060122100508000
B1925143412612N11718186WA012060122100708000
B1925193412612N11718186WA012060122100708000
B1925243412612N11718186WA012060122100708000
B1925293412612N11718186WA012060122100608000
B1925343412612N11718186WA012060122100708000
B1925393412612N11718186WA012060122100708000
B1925443412612N11718186WA012060122100708000
B1925493412612N11718186WA012060122100708000
B1925543412612N11718186WA012060122100708000
B1925593412612N11718186WA012060122100808000
B1926043412612N11718186WA012060122100708000
B1926093412612N11718186WA012060122100808000
B1926143412612N11718186WA012060122100708000
B1926193412612N11718186WA012060122100708000
B1926243412612N11718186WA012060122100708000
B1926293412612N11718186WA012060122100708000
B1926343412612N11718186WA012060122100808000
B1926393412612N11718186WA012060122100808000
B1926443412612N11718186WA012060122100808000
B1926493412612N11718186WA012060122100708000
B1926543412612N11718186WA012060122100708000
B1926593412612N11718186WA012060122100708000
B1927043412612N11718186WA012060122100708000
B1927093412612N11718186WA012060122100808000
B1927143412612N11718186WA012060122100708000
B1927193412612N11718186WA012060122100708000
B1927243412612N11718186WA012060122100808000
B1927293412612N11718186WA012060122100708000
B1927343412612N11718186WA012060122100708000
B1927393412612N11718186WA012060122100808000
B1927443412612N11718186WA012060122100808000
B1927493412612N11718186WA012060122100708000
B1927543412612N11718186WA012060122100708000
B1927593412612N11718186WA012060122100708000
B1928043412612N11718186WA012060122100808000
B1928093412612N11718186WA012060122100808000
B1928143412612N11718186WA012060122100708000
B1928193412612N11718186WA012060122100708000
B1928243412612N11718186WA012060122100708000
B1928293412612N11718186WA012060122100708000
B1928343412612N11718186WA012060122100708000
B1928393412612N11718186WA012060122100808000
B1928443412612N11718186WA012060122100708000
B1928493412612N11718186WA012060122100808000
B1928543412612N11718186WA012060122100808000
B1928593412612N11718186WA012060122100808000
B1929043412612N11718186WA012060122100808000
B1929093412612N11718186WA012060122100808000
B1929143412612N11718186WA012060122100708000
B1929193412612N11718186WA012060122100708000
B1929243412612N11718186WA012060122100708000
B1929293412612N11718186WA012060122100708000
B1929343412612N11718186WA012060122100708000
B1929393412612N11718186WA012060122100708000
B1929443412612N11718186WA012060122100708000
B1929493412612N11718186WA012060122100708000
B1929543412612N11718186WA012060122100708000
B1929593412612N11718186WA012060122100708000
B1930043412612N11718186WA012060122100708000
B1930093412612N11718186WA012060122100708000
B1930143412612N11718186WA012060122100708000
B1930193412612N11718186WA012060122100708000
B1930243412612N11718186WA012060122100708000
B1930293412612N11718186WA012060122100708000
B1930343412612N11718186WA012060122100708000
B1930393412612N11718186WA012060122100708000
B1930443412612N11718186WA012060122100708000
B1930493412612N11718186WA012060122100708000
B1930543412612N11718186WA012060122100708000
B1930593412612N11718186WA012060122100708000
B1931043412612N11718186WA012060122100708000
B1931093412612N11718186WA012060122100708000
B1931143412612N11718186WA012060122100708000
B1931193412612N11718186WA012060122100708000
B1931243412612N11718186WA012060122100608000
B1931293412612N11718186WA012060122100708000
B1931343412612N11718186WA012060122100708000
B1931393412612N11718186WA012060122100708000
B1931443412612N11718186WA012060122100608000
B1931493412612N11718186WA012060122100708000
B1931543412612N11718186WA012070122100608000
B1931593412611N11718186WA012070122100508000
B1932043412611N11718186WA012070122000708000
B1932093412611N11718186WA012060122000808000
B1932143412611N11718186WA012060122000508000
B1932193412611N11718186WA012060122000808000
B1932243412611N11718186WA012060122000908000
B1932293412611N11718186WA012060122000608000
B1932343412611N11718186WA012060122000508000
B1932393412611N11718186WA012060122000708000
B1932443412611N11718186WA012060122000608000
B1932493412611N11718186WA012050122100608000
B1932543412611N11718186WA012050122000708000
B1932593412611N11718186WA012050122000608000
B1933043412611N11718186WA012050122000508000
B1933093412611N11718186WA012050122000608000
B1933143412611N11718186WA012050122000508000
B1933193412611N11718186WA012050122000708000
B1933243412611N11718186WA012050122000508000
B1933293412611N11718186WA012050122000808000
B1933343412611N11718186WA012050122000808000
B1933393412611N11718186WA012050122000808000
B1933443412611N11718186WA012050122000408000
B1933493412611N11718186WA012050122000408000
B1933543412611N11718186WA012060122000508000
B1933593412611N11718185WA012050122000608000
B1934043412611N11718185WA012050122000508000
B1934093412611N11718185WA012050122000508000
B1934143412611N11718185WA012050122000608000
B1934193412611N11718185WA012050122000608000
B1934243412611N11718185WA012050122100608000
B1934293412611N11718185WA012050122100508000
B1934343412611N11718185WA012050122100708000
B1934393412611N11718185WA012050122100508000
F19344407111318192830
B1934443412611N11718185WA012050122100607000
F1934490711131718192830
B1934493412611N11718185WA012050122100508000
B1934543412611N11718185WA012050122000408000
B1934593412611N11718185WA012050122100608000
B1935043412611N11718184WA012050122100708000
B1935093412611N11718185WA012050122100908000
B1935143412611N11718186WA012050122100708000
B1935193412611N11718186WA012050122100708000
B1935243412611N11718186WA012050122100908000
B1935293412611N11718186WA012050122100708000
B1935343412611N11718186WA012050122000608000
B1935393412612N11718186WA012050122100508000
B1935443412613N11718185WA012060122000508000
B1935493412613N11718185WA012060122000908000
B1935543412612N11718185WA012060122000708000
B1935593412612N11718185WA012060122000408000
B1936043412611N11718185WA012050122100408000
B1936093412611N11718185WA012050122000708000
B1936143412611N11718185WA012050122000708000
B1936193412611N11718186WA012050122000708000
B1936243412611N11718185WA012050122100708000
B1936293412610N11718185WA012050122000608000
B1936343412611N11718185WA012050122100608000
B1936393412610N11718185WA012050122100708000
B1936443412610N11718185WA012050122100508000
B1936493412611N11718186WA012060122100608000
B1936543412610N11718186WA012060122100708000
B1936593412611N11718187WA012050122100608000
B1937043412611N11718187WA012050122100508000
B1937093412611N11718187WA012060122100508000
B1937143412611N11718186WA012050122000708000
B1937193412611N11718186WA012060122000408000
B1937243412611N11718186WA012060122000508000
B1937293412611N11718185WA012060122000608000
B1937343412611N11718185WA012060122000608000
B1937393412611N11718185WA012050122000608000
F19374407111317182830
B1937443412611N11718185WA012050122000707000
F1937490711131718192830
B1937493412611N11718185WA012060122000608000
B1937543412611N11718185WA012060122000808000
B1937593412612N11718184WA012050122000708000
B1938043412612N11718185WA012060122000908000
B1938093412612N11718185WA012060122000908000
B1938143412611N11718185WA012060121900608000
B1938193412612N11718185WA012060121900608000
B1938243412612N11718185WA012060121900608000
B1938293412611N11718184WA012060121900708000
B1938343412608N11718181WA012060122000708000
B1938393412606N11718178WA012060121900808000
B1938443412604N11718176WA012050121900808000
B1938493412602N11718174WA012060122000608000
B1938543412601N11718176WA012050122000708000
B1938593412600N11718180WA012040121900508000
B1939043412600N11718183WA012030121900808000
B1939093412600N11718182WA012030121900708000
B1939143412600N11718182WA012030121800708000
B1939193412600N11718183WA012030121800608000
B1939243412601N11718184WA012030121800808000
B1939293412601N11718184WA012030121800608000
B1939343412600N11718184WA012030121700708000
B1939393412600N11718184WA012030121600608000
B1939443412600N11718184WA012040121600608000
B1939493412599N11718182WA012040121601008000
B1939543412598N11718184WA012030121600708000
B1939593412597N11718183WA012030121600708000
B1940043412597N11718183WA012030121500708000
B1940093412597N11718183WA012030121500708000
B1940143412597N11718184WA012030121500708000
B1940193412597N11718185WA012030121400708000
B1940243412598N11718184WA012030121500708000
B1940293412598N11718185WA012030121400708000
B1940343412598N11718186WA012030121400608000
B1940393412598N11718186WA012030121400808000
B1940443412598N11718186WA012030121400708000
B1940493412598N11718186WA012030121400608000
B1940543412598N11718186WA012030121500608000
B1940593412598N11718185WA012030121500708000
B1941043412598N11718186WA012030121500708000
B1941093412598N11718186WA012030121500808000
B1941143412598N11718187WA012030121400608000
B1941193412598N11718185WA012030121500608000
B1941243412598N11718185WA012030121400908000
B1941293412598N11718184WA012030121500808000
F19413407111317182830
B1941343412598N11718184WA012030121600707000
F1941390711131718192830
B1941393412598N11718184WA012040121600808000
B1941443412598N11718185WA012040121600808000
B1941493412598N11718185WA012030121600608000
B1941543412598N11718185WA012030121600708000
B1941593412598N11718183WA012030121700808000
B1942043412598N11718184WA012040121600508000
B1942093412598N11718184WA012040121600508000
B1942143412598N11718184WA012040121500608000
F19421907111317192830
B1942193412598N11718185WA012030121400707000
B1942243412598N11718186WA012030121500707000
F1942290711131718192830
B1942293412598N11718186WA012030121500708000
B1942343412597N11718186WA012040121500708000
B1942393412598N11718187WA012040121400708000
B1942443412598N11718186WA012040121400508000
B1942493412598N11718186WA012040121400608000
B1942543412598N11718186WA012040121400708000
B1942593412598N11718186WA012040121400608000
B1943043412598N11718185WA012040121400608000
B1943093412598N11718185WA012040121400608000
B1943143412598N11718185WA012040121400608000
B1943193412598N11718185WA012040121400708000
B1943243412598N11718185WA012040121400708000
B1943293412598N11718185WA012040121500708000
F19433407111317182830
B1943343412598N11718184WA012040121500607000
B1943393412598N11718184WA012040121500607000
F1943440711131718192830
B1943443412598N11718184WA012040121600608000
B1943493412598N11718184WA012040121600608000
B1943543412598N11718184WA012040121700508000
B1943593412598N11718184WA012040121700608000
B1944043412598N11718184WA012040121700508000
B1944093412598N11718184WA012040121600608000
B1944143412598N11718184WA012040121600608000
B1944193412598N11718185WA012050121600608000
B1944243412598N11718185WA012050121600608000
B1944293412599N11718184WA012050121600608000
B1944343412599N11718185WA012050121600608000
B1944393412599N11718184WA012050121500608000
B1944443412599N11718185WA012050121500508000
B1944493412599N11718185WA012050121500608000
B1944543412599N11718185WA012050121500608000
B1944593412599N11718185WA012050121500608000
B1945043412599N11718185WA012050121500508000
B1945093412599N11718185WA012050121500508000
F19451407111317192830
B1945143412599N11718185WA012050121500707000
B1945193412599N11718185WA012050121500707000
B1945243412599N11718185WA012060121500707000
F1945290711131718192830
B1945293412598N11718185WA012050121500508000
F19453407111317192830
B1945343412598N11718185WA012050121501107000
B1945393412598N11718185WA012050121501007000
B1945443412598N11718185WA012050121500607000
F1945490711131718192830
B1945493412598N11718185WA012050121500408000
F19455407111317192830
B1945543412598N11718185WA012060121501007000
F1945590711131718192830
B1945593412598N11718185WA012050121500408000
B1946043412598N11718184WA012050121600408000
B1946093412598N11718184WA012060121600408000
B1946143412598N11718184WA012050121600408000
B1946193412598N11718184WA012050121500408000
B1946243412598N11718184WA012060121500408000
B1946293412598N11718184WA012060121500408000
F19463407111317192830
B1946343412598N11718184WA012060121500907000
B1946393412598N11718184WA012050121600707000
B1946443412598N11718184WA012060121601007000
B1946493412598N11718184WA012050121600807000
B1946543412598N11718184WA012060121600807000
B1946593412598N11718184WA012060121600407000
B1947043412598N11718184WA012060121600607000
B1947093412598N11718184WA012060121700807000
B1947143412598N11718184WA012060121700607000
B1947193412598N11718184WA012060121600807000
B1947243412598N11718183WA012060121600807000
B1947293412597N11718184WA012060121600807000
F1947340107111317192830
B1947343412599N11718184WA012060121600908000
B1947393412588N11718182WA012020121501108000
B1947443412574N11718182WA012030121500908000
B1947493412561N11718181WA012060121600508000
B1947543412546N11718176WA012050121500608000
B1947593412532N11718173WA012040121600508000
B1948043412514N11718167WA012050121700408000
B1948093412504N11718168WA012100121800508000
B1948143412504N11718193WA012050121700608000
B1948193412527N11718218WA012080121900608000
B1948243412556N11718230WA012100121900608000
B1948293412555N11718251WA012050121800908000
B1948343412537N11718243WA012080121800808000
B1948393412521N11718229WA012110122100808000
B1948443412507N11718211WA012150122500808000
B1948493412512N11718233WA012160122601008000
F194854010711131718192830
B1948543412546N11718226WA012160122500809000
F1948590107111317192830
B1948593412544N11718188WA012170122500808000
B1949043412525N11718170WA012190122800808000
B1949093412505N11718178WA012200122900508000
B1949143412491N11718194WA012250123300408000
B1949193412480N11718217WA012230123400408000
B1949243412468N11718235WA012270123700508000
B1949293412480N11718259WA012290123800808000
F194934010711131718192830
B1949343412510N11718252WA012390124200809000
B1949393412504N11718226WA012410124700609000
B1949443412491N11718217WA012410125000409000
F1949490107111317192830
B1949493412476N11718222WA012390124900508000
B1949543412487N11718252WA012370124800708000
F194959010711131718192830
B1949593412520N11718255WA012390124800609000
B1950043412537N11718225WA012440125200509000
F1950090107111317192830
B1950093412534N11718196WA012450125501008000
B1950143412517N11718180WA012460125600908000
B1950193412510N11718192WA012570126100408000
F19502401071113171928
B1950243412512N11718224WA012590126400907000
F195029010711131718192830
B1950293412546N11718218WA012580126500709000
F1950340107111317192830
B1950343412546N11718186WA012580126501208000
B1950393412533N11718188WA012700127000708000
B1950443412539N11718221WA012620127100708000
B1950493412576N11718213WA012570126901008000
B1950543412579N11718178WA012530126501408000
B1950593412565N11718166WA012630127100908000
B1951043412552N11718174WA012710127600908000
B1951093412577N11718190WA012680127701108000
B1951143412595N11718164WA012680128001508000
B1951193412581N11718143WA012680128101008000
B1951243412561N11718137WA012740128500508000
B1951293412543N11718137WA012790128800508000
B1951343412529N11718138WA012860129200608000
B1951393412521N11718148WA012910129700508000
F195144010711131718192830
B1951443412547N11718158WA012960130100909000
F1951490107111317192830
B1951493412560N11718132WA012970130400608000
F195154010711131718192830
B1951543412546N11718119WA013010130900509000
B1951593412526N11718120WA013030131200309000
F1952040107111317192830
B1952043412504N11718125WA013050131500608000
F195209010711131718192830
B1952093412487N11718127WA013080131700309000
B1952143412468N11718124WA013160132200409000
B1952193412456N11718145WA013150132500409000
B1952243412482N11718170WA013120132400709000
B1952293412500N11718152WA013070132000609000
F19523401071317192830
B1952343412489N11718167WA013220132101007000
F195239010711131718192830
B1952393412509N11718193WA013210132700909000
B1952443412537N11718183WA013210133001309000
B1952493412531N11718159WA013260133601209000
F1952540107111317192830
B1952543412522N11718180WA013370134300908000
B1952593412559N11718180WA013440135001808000
B1953043412556N11718156WA013480135301008000
B1953093412536N11718151WA013600137000608000
B1953143412540N11718179WA013730138800608000
B1953193412573N11718189WA013860140201608000
B1953243412590N11718163WA013940141201208000
B1953293412592N11718135WA014030142300708000
F19533407111317192830
B1953343412577N11718141WA014160143400507000
F1953390107111317192830
B1953393412581N11718173WA014320144900708000
B1953443412614N11718181WA014420146000708000
B1953493412636N11718164WA014520147001408000
B1953543412625N11718138WA014570147601008000
B1953593412608N11718134WA014740148600608000
B1954043412597N11718157WA014730149000508000
B1954093412615N11718189WA014740149000708000
B1954143412655N11718196WA014780149301008000
B1954193412683N11718177WA014910150601108000
B1954243412680N11718151WA015010152001208000
B1954293412666N11718152WA015130153200508000
B1954343412674N11718181WA015220154200608000
B1954393412715N11718174WA015290154501008000
B1954443412716N11718151WA015410155301208000
B1954493412701N11718154WA015540156800508000
B1954543412716N11718183WA015580157600808000
B1954593412754N11718173WA015630158001408000
B1955043412755N11718145WA015680158600908000
B1955093412741N11718148WA015790159200708000
B1955143412755N11718175WA015830159800708000
B1955193412794N11718176WA015870160301108000
B1955243412796N11718145WA015860160601308000
B1955293412782N11718124WA015850160700908000
B1955343412764N11718127WA015910161000608000
B1955393412760N11718153WA015990161700508000
B1955443412783N11718172WA016040162300708000
B1955493412805N11718150WA016080162901208000
B1955543412801N11718119WA016120163400908000
B1955593412784N11718107WA016210164100808000
B1956043412787N11718130WA016310165200708000
B1956093412823N11718131WA016350165801608000
B1956143412822N11718100WA016390166001208000
B1956193412807N11718081WA016480166500708000
B1956243412807N11718097WA016560167001008000
B1956293412839N11718108WA016580167500808000
B1956343412872N11718091WA016610167901408000
B1956393412869N11718058WA016620168201008000
B1956443412850N11718037WA016630168500808000
B1956493412833N11718029WA016660168800508000
B1956543412832N11718045WA016620168800708000
F19565901071113171930
B1956593412813N11718048WA016600168700807000
F1957040107111317192830
B1957043412793N11718024WA016490168101108000
B1957093412778N11717992WA016390167000908000
B1957143412767N11717961WA016300166101008000
B1957193412753N11717929WA016220165200908000
B1957243412741N11717898WA016160164400908000
B1957293412728N11717866WA016110163800908000
B1957343412713N11717836WA016040163100408000
B1957393412695N11717807WA015970162400408000
B1957443412677N11717780WA015900161800608000
B1957493412659N11717756WA015850161200708000
B1957543412637N11717736WA015790160600708000
B1957593412619N11717714WA015720159900508000
B1958043412603N11717689WA015610158900608000
B1958093412590N11717661WA015500157700908000
B1958143412579N11717634WA015390156400908000
B1958193412569N11717606WA015260155100808000
B1958243412557N11717579WA015160153800908000
B1958293412541N11717556WA015080152800908000
B1958343412525N11717531WA015020152200808000
B1958393412508N11717504WA014950151600708000
B1958443412495N11717473WA014890151000508000
B1958493412480N11717443WA014790150200708000
B1958543412462N11717422WA014710149400608000
B1958593412445N11717396WA014650148700608000
B1959043412434N11717367WA014590148100808000
B1959093412423N11717338WA014540147500808000
B1959143412412N11717305WA014440146700808000
B1959193412403N11717274WA014390145900808000
B1959243412390N11717244WA014310145300708000
B1959293412377N11717212WA014210144400808000
B1959343412365N11717182WA014120143400808000
B1959393412355N11717150WA014030142200708000
B1959443412348N11717119WA013970141300808000
B1959493412335N11717088WA013840140400908000
B1959543412320N11717057WA013750139500508000
B1959593412305N11717024WA013700138700908000
B2000043412293N11716990WA013660138300608000
F20000901071117192830
B2000093412287N11716955WA013620138000907000
F2000140107111317192830
B2000143412275N11716920WA013600137700908000
B2000193412261N11716890WA013550137400908000
B2000243412250N11716857WA013480136901108000
B2000293412240N11716824WA013420136200708000
B2000343412229N11716792WA013370135501008000
B2000393412217N11716757WA013220134601108000
B2000443412206N11716730WA013170133901008000
B2000493412193N11716703WA013070132900608000
B2000543412179N11716675WA012950131900808000
B2000593412168N11716648WA012890131000708000
B2001043412158N11716619WA012780129900608000
B2001093412148N11716588WA012680128900408000
B2001143412140N11716563WA012700128501008000
B2001193412131N11716553WA012740128600508000
B2001243412114N11716557WA012740128400608000
B2001293412119N11716527WA012760128501208000
B2001343412148N11716530WA012780128601008000
B2001393412157N11716563WA012710128400908000
B2001443412139N11716571WA012740128600808000
B2001493412134N11716538WA012740128600608000
F20015401111317192830
B2001543412160N11716517WA012780128701007000
B2001593412187N11716532WA012780128702107000
B2002043412183N11716561WA012720128501107000
B2002093412166N11716540WA012730128601407000
B2002143412162N11716506WA012760128701207000
B2002193412151N11716481WA012750128801207000
B2002243412135N11716461WA012780129001007000
B2002293412120N11716461WA012820129100507000
B2002343412130N11716473WA012870129202607000
B2002393412161N11716453WA012920129501307000
B2002443412149N11716429WA012880129701407000
B2002493412135N11716414WA012920130000707000
B2002543412119N11716410WA012920130100507000
B2002593412116N11716429WA012960130400907000
B2003043412147N11716422WA012980130501807000
B2003093412144N11716396WA013020130701407000
B2003143412129N11716386WA013020130701007000
B2003193412111N11716399WA013030130900507000
B2003243412112N11716422WA013070131101307000
B2003293412145N11716417WA013110131502107000
B2003343412148N11716388WA013150132001407000
B2003393412131N11716372WA013190132601107000
B2003443412114N11716378WA013180132800707000
B2003493412134N11716394WA013110132702007000
B2003543412148N11716367WA013140132601607000
B2003593412137N11716336WA013060132301307000
B2004043412126N11716306WA013020131900707000
B2004093412116N11716275WA013000131600707000
B2004143412105N11716240WA012940131200707000
B2004193412092N11716203WA012830130600707000
B2004243412078N11716170WA012730129600707000
B2004293412071N11716141WA012640128600807000
B2004343412063N11716111WA012510127200807000
B2004393412054N11716082WA012480126500707000
B2004443412052N11716052WA012530126500807000
B2004493412051N11716019WA012560126600807000
B2004543412050N11715996WA012760127300707000
B2004593412029N11716006WA012870127901207000
B2005043412043N11716011WA013000129202307000
B2005093412067N11715996WA013140130901507000
B2005143412048N11715984WA013280132301107000
B2005193412046N11716006WA013510134102307000
B2005243412078N11715999WA013630136501607000
B2005293412064N11715983WA013770138301107000
B2005343412062N11716006WA013940140302407000
B2005393412094N11716011WA014050142001807000
B2005443412099N11715983WA014140143201707000
B2005493412080N11715975WA014330144600907000
B2005543412079N11715995WA014440146002407000
B2005593412113N11715989WA014550147401707000
B2006043412123N11715965WA014720148901307000
B2006093412105N11715951WA014820149800807000
B2006143412092N11715971WA015040151001207000
B2006193412122N11715968WA015110152602207000
B2006243412126N11715949WA015310154201507000
B2006293412101N11715938WA015430155800907000
B2006343412099N11715958WA015570157302507000
B2006393412120N11715940WA015700158801107000
B2006443412098N11715941WA015880160001007000
B2006493412108N11715951WA015910161102107000
B2006543412129N11715936WA016080162401107000
B2006593412115N11715907WA016160163401207000
B2007043412099N11715920WA016240164200907000
B2007093412104N11715934WA016330165301907000
B2007143412138N11715923WA016380166101907000
B2007193412143N11715892WA016470166801207000
B2007243412126N11715862WA016530167601207000
B2007293412108N11715863WA016600168300507000
B2007343412119N11715884WA016580168302307000
B2007393412152N11715879WA016610168702307000
B2007443412154N11715843WA016650168901707000
B2007493412135N11715820WA016690169200707000
B2007543412119N11715833WA016640169300507000
B2007593412125N11715858WA016570168902007000
B2008043412158N11715865WA016540168401307000
B2008093412181N11715838WA016520168102007000
B2008143412179N11715799WA016490167801207000
B2008193412160N11715769WA016390167400807000
B2008243412142N11715747WA016290166500607000
B2008293412126N11715717WA016160165400807000
B2008343412112N11715691WA016070164200907000
B2008393412094N11715669WA016050163600707000
B2008443412076N11715647WA015960162900907000
B2008493412057N11715620WA015910162200807000
B2008543412040N11715592WA015880161800607000
B2008593412020N11715560WA015810161300907000
B2009043412003N11715533WA015760160800607000
B2009093411983N11715504WA015690160100607000
B2009143411964N11715478WA015630159400607000
B2009193411945N11715450WA015570158800407000
B2009243411929N11715421WA015540158200707000
B2009293411913N11715391WA015490157600807000
B2009343411897N11715366WA015480157300807000
B2009393411879N11715339WA015440157000807000
B2009443411862N11715312WA015410156600807000
B2009493411844N11715284WA015350156200807000
B2009543411825N11715260WA015300155800607000
B2009593411805N11715237WA015240155200407000
B2010043411783N11715217WA015180154700407000
B2010093411762N11715195WA015120154000807000
B2010143411742N11715171WA015060153200707000
B2010193411721N11715147WA015000152500607000
B2010243411699N11715122WA014940151600607000
B2010293411678N11715096WA014870151000307000
B2010343411660N11715068WA014790150100707000
B2010393411642N11715040WA014720149400707000
B2010443411623N11715012WA014650148700707000
B2010493411604N11714986WA014590147900707000
B2010543411587N11714958WA014530147300607000
B2010593411570N11714932WA014460146600707000
B2011043411549N11714909WA014370145800707000
B2011093411529N11714888WA014270144900607000
B2011143411511N11714868WA014180144000707000
B2011193411495N11714844WA014150143400707000
B2011243411478N11714821WA014100143100707000
B2011293411460N11714792WA014100142900807000
B2011343411445N11714770WA014160142900507000
B2011393411430N11714767WA014220143200507000
B2011443411444N11714771WA014160143202607000
B2011493411456N11714737WA014140143001007000
B2011543411441N11714710WA014110143001307000
B2011593411418N11714692WA013960142400907000
B2012043411397N11714668WA013890141601007000
B2012093411377N11714646WA013850140900907000
B2012143411360N11714625WA013750140200907000
B2012193411340N11714602WA013640139300507000
B2012243411324N11714580WA013550138200907000
B2012293411308N11714555WA013390136800907000
B2012343411297N11714522WA013260135300707000
B2012393411282N11714491WA013130133600907000
B2012443411266N11714460WA013050132500807000
B2012493411248N11714428WA012970131500907000
B2012543411228N11714399WA012930131000807000
B2012593411202N11714373WA012850130200707000
B2013043411180N11714349WA012800129700707000
B2013093411154N11714328WA012690128700707000
B2013143411130N11714307WA012590127600707000
B2013193411104N11714289WA012520126800607000
B2013243411078N11714271WA012490126100707000
B2013293411053N11714252WA012400125400807000
B2013343411027N11714232WA012340124800807000
B2013393411001N11714216WA012220124000707000
B2013443410978N11714201WA012130123000807000
B2013493410958N11714186WA012040122000707000
B2013543410936N11714171WA011910120800707000
B2013593410914N11714159WA011850119900607000
B2014043410893N11714147WA011830119500707000
B2014093410870N11714132WA011830119400907000
B2014143410851N11714120WA011860119500907000
B2014193410830N11714108WA011850119500407000
B2014243410810N11714093WA011780119200407000
B2014293410790N11714070WA011700118600807000
B2014343410771N11714052WA011740118600807000
B2014393410752N11714033WA011880119001907000
B2014443410738N11714040WA011970119800707000
B2014493410744N11714058WA012070120501907000
B2014543410771N11714043WA012150121301607000
B2014593410756N11714020WA012260122401007000
B2015043410758N11714040WA012360123402707000
B2015093410785N11714035WA012490124801607000
B2015143410769N11714019WA012590125801007000
B2015193410771N11714036WA012680126801807000
B2015243410797N11714024WA012800128301107000
B2015293410781N11714007WA012870129101107000
B2015343410780N11714029WA012950129701607000
B2015393410805N11714032WA013080131202407000
B2015443410817N11714003WA013130132101307000
B2015493410797N11713991WA013160132400607000
B2015543410793N11714010WA013230132801307000
B2015593410825N11714015WA013290133501407000
B2016043410841N11713988WA013340134001107000
B2016093410821N11713977WA013330134101007000
B2016143410828N11714003WA013390134501607000
B2016193410858N11713999WA013460135301707000
B2016243410866N11713971WA013500135800707000
B2016293410847N11713966WA013420135900607000
B2016343410849N11713997WA013440136101307000
B2016393410877N11714006WA013500136402107000
B2016443410895N11713980WA013530136700907000
B2016493410888N11713952WA013520136700707000
B2016543410862N11713949WA013420136300507000
B2016593410838N11713957WA013410136200407000
B2017043410825N11713990WA013440136100907000
B2017093410843N11714003WA013450135901807000
B2017143410871N11713991WA013460135901807000
B2017193410868N11713959WA013400135700907000
B2017243410847N11713951WA013470135900607000
B2017293410844N11713970WA013450135900807000
B2017343410871N11713971WA013390135501707000
B2017393410888N11713938WA013370135201507000
B2017443410874N11713912WA013410135301007000
B2017493410850N11713900WA013520136100807000
B2017543410831N11713907WA013600136800507000
B2017593410828N11713922WA013580137101507000
B2018043410858N11713916WA013500136901307000
B2018093410881N11713889WA013520136801507000
B2018143410876N11713853WA013580136900607000
B2018193410854N11713829WA013650137501107000
B2018243410829N11713832WA013540137500507000
B2018293410804N11713820WA013510137300807000
B2018343410778N11713803WA013410136800607000
B2018393410757N11713777WA013290135300907000
B2018443410738N11713751WA013160133800807000
B2018493410717N11713729WA013100132600807000
B2018543410693N11713708WA012970131300507000
B2018593410671N11713682WA012870130200907000
B2019043410650N11713654WA012790129101007000
B2019093410631N11713631WA012710128401007000
B2019143410612N11713605WA012620127500807000
B2019193410596N11713578WA012560126900907000
B2019243410580N11713556WA012510126300807000
B2019293410564N11713534WA012470125900707000
B2019343410547N11713513WA012400125500707000
B2019393410528N11713491WA012300124900807000
B2019443410509N11713471WA012200123900807000
B2019493410492N11713454WA012090122600807000
B2019543410472N11713437WA011960121200707000
B2019593410452N11713418WA011870120000707000
B2020043410432N11713397WA011760118900607000
B2020093410411N11713376WA011660117700607000
B2020143410384N11713357WA011530116500607000
B2020193410359N11713340WA011500115900707000
B2020243410336N11713325WA011440115300407000
B2020293410316N11713314WA011450115100607000
B2020343410298N11713304WA011500115400907000
B2020393410283N11713308WA011580115700807000
B2020443410304N11713330WA011600116102007000
B2020493410326N11713306WA011610116301107000
B2020543410312N11713283WA011680116701607000
B2020593410293N11713280WA011760117400607000
B2021043410285N11713294WA011820117800407000
B2021093410294N11713316WA011850118302107000
B2021143410315N11713303WA011930119001307000
B2021193410303N11713284WA012030120001207000
B2021243410290N11713298WA012060120500907000
B2021293410315N11713309WA012060120702307000
B2021343410330N11713284WA012150121301507000
F202139011317192830
B2021393410314N11713286WA012200121601406000
B2021443410336N11713293WA012250122201906000
B2021493410329N11713276WA012350122801906000
B2021543410324N11713293WA012370123202006000
B2021593410345N11713288WA012410123601506000
B2022043410336N11713266WA012460124101206000
B2022093410325N11713282WA012400124302206000
B2022143410350N11713291WA012440124802306000
B2022193410366N11713266WA012460125101106000
B2022243410364N11713244WA012520125501006000
B2022293410350N11713254WA012460125500706000
B2022343410326N11713256WA012360125301006000
B2022393410307N11713239WA012320125001106000
B2022443410287N11713220WA012210124200706000
B2022493410271N11713198WA012130123200706000
B2022543410253N11713170WA012000122000906000
B2022593410241N11713137WA011880120400806000
B2023043410226N11713109WA011810119400806000
B2023093410207N11713087WA011750118800606000
B2023143410190N11713064WA011690118200906000
B2023193410173N11713039WA011620117400706000
B2023243410155N11713014WA011520116400706000
B2023293410135N11712988WA011430115500606000
B2023343410112N11712966WA011340114500606000
B2023393410090N11712937WA011240113500706000
B2023443410068N11712911WA011120112300306000
B2023493410049N11712883WA011030111200706000
B2023543410031N11712853WA010980110700606000
B2023593410011N11712823WA010940110400606000
B2024043409990N11712793WA010860109700906000
B2024093409972N11712766WA010810109100506000
B2024143409952N11712736WA010720108400606000
B2024193409931N11712711WA010660107700606000
B2024243409912N11712681WA010580107000706000
B2024293409888N11712655WA010460105800706000
B2024343409869N11712631WA010430105000806000
B2024393409849N11712606WA010340104200506000
B2024443409827N11712575WA010330103700706000
B2024493409804N11712548WA010330103600506000
B2024543409788N11712524WA010390103900806000
B2024593409767N11712509WA010420104101206000
F2025040117192830
B2025043409752N11712479WA010340103801005000
F202509011317192830
B2025093409740N11712454WA010410103801206000
B2025143409718N11712449WA010350103700906000
B2025193409696N11712438WA010440103800906000
B2025243409676N11712417WA010360103601106000
B2025293409669N11712379WA010270103200906000
B2025343409654N11712346WA010190102701106000
B2025393409641N11712310WA010110101901006000
B2025443409627N11712273WA010000101000706000
B2025493409613N11712239WA009920100100706000
B2025543409599N11712207WA009840099100606000
B2025593409585N11712176WA009750098300706000
B2026043409570N11712147WA009710097600906000
B2026093409553N11712114WA009610097100806000
F2026140113172830
B2026143409540N11712082WA009550096400805000
F202619011317192830
B2026193409527N11712050WA009510095800806000
B2026243409508N11712029WA009470095400906000
B2026293409491N11712003WA009460095101006000
B2026343409474N11711991WA009520095300606000
B2026393409470N11712009WA009470095202006000
B2026443409478N11712035WA009490095101006000
B2026493409457N11712024WA009440094901906000
B2026543409450N11711986WA009460094701106000
B2026593409449N11711944WA009420094400806000
B2027043409447N11711902WA009430094300806000
B2027093409436N11711869WA009460094501306000
B2027143409418N11711852WA009490094700906000
B2027193409400N11711854WA009490094700906000
B2027243409421N11711858WA009420094702006000
B2027293409428N11711817WA009410094401506000
B2027343409410N11711798WA009400094300806000
B2027393409390N11711798WA009380094100906000
B2027443409412N11711810WA009340093901906000
B2027493409444N11711796WA009370093801306000
B2027543409464N11711759WA009350093701206000
B2027593409477N11711719WA009370093901006000
B2028043409470N11711693WA009390094200706000
B2028093409456N11711691WA009410094100606000
B2028143409465N11711699WA009370094001806000
B2028193409494N11711703WA009410094001706000
B2028243409488N11711711WA009360093801406000
B2028293409469N11711696WA009360093800906000
B2028343409451N11711678WA009350093701006000
B2028393409436N11711672WA009330093600706000
B2028443409440N11711687WA009330093601506000
B2028493409461N11711701WA009350093601406000
B2028543409449N11711704WA009380093701306000
B2028593409437N11711698WA009420093701106000
B2029043409447N11711715WA009420093801706000
B2029093409470N11711724WA009470094101706000
B2029143409494N11711693WA009470094302106000
B2029193409480N11711678WA009510094301206000
B2029243409467N11711680WA009500094400706000
B2029293409452N11711678WA009480094300606000
B2029343409462N11711685WA009420094202706000
B2029393409490N11711691WA009380093901706000
B2029443409507N11711706WA009370093701006000
B2029493409497N11711708WA009320093500806000
B2029543409490N11711718WA009300093400906000
B2029593409474N11711711WA009280093300906000
B2030043409460N11711688WA009280093200906000
B2030093409448N11711660WA009300093201106000
B2030143409431N11711633WA009250093001506000
B2030193409411N11711617WA009290092800906000
B2030243409390N11711612WA009320092801106000
B2030293409368N11711588WA009290092801006000
B2030343409347N11711565WA009170092201206000
B2030393409327N11711538WA009060091400706000
B2030443409307N11711512WA008980090600706000
B2030493409285N11711485WA008890089600906000
B2030543409265N11711467WA008940089200706000
B2030593409270N11711479WA008910088901706000
B2031043409297N11711460WA008920088801606000
B2031093409283N11711427WA008930088801406000
B2031143409264N11711431WA008880088701406000
B2031193409288N11711434WA008840088402006000
B2031243409294N11711392WA008790088001806000
B2031293409278N11711364WA008720087701206000
B2031343409257N11711346WA008630086801006000
B2031393409237N11711329WA008550086000906000
B2031443409218N11711305WA008490085200806000
B2031493409203N11711277WA008500084800506000
B2031543409188N11711245WA008490084600806000
B2031593409174N11711214WA008490084500806000
B2032043409155N11711199WA008500084500406000
B2032093409132N11711195WA008430084300506000
B2032143409110N11711176WA008440084200606000
B2032193409097N11711147WA008460084101006000
B2032243409099N11711107WA008410083901506000
B2032293409080N11711100WA008450084001406000
B2032343409053N11711090WA008340083901006000
B2032393409036N11711062WA008360083701306000
B2032443409015N11711043WA008360083600806000
B2032493408996N11711013WA008300083301106000
B2032543408975N11710981WA008220082701006000
B2032593408955N11710946WA008130082001006000
B2033043408934N11710922WA008120081501206000
B2033093408912N11710905WA008080080800706000
B2033143408895N11710873WA008060080600806000
B2033193408885N11710836WA008120080401106000
B2033243408872N11710826WA008180080700806000
B2033293408885N11710838WA008240080901806000
B2033343408906N11710805WA008240081001806000
B2033393408891N11710785WA008330081500906000
B2033443408879N11710799WA008300081600906000
B2033493408891N11710818WA008310081701106000
B2033543408918N11710791WA008270082001506000
B2033593408908N11710756WA008410082601506000
B2034043408887N11710752WA008330082800706000
B2034093408891N11710767WA008320082801706000
B2034143408915N11710740WA008330082701206000
B2034193408908N11710700WA008290082700706000
B2034243408892N11710673WA008330082700606000
B2034293408877N11710662WA008430082900506000
F2034341317192830
B2034343408876N11710672WA008430082901605000
B2034393408904N11710660WA008360082901705000
B2034443408913N11710617WA008420082901305000
B2034493408904N11710581WA008450083201605000
B2034543408888N11710567WA008470083301205000
B2034593408878N11710577WA008470083401905000
B2035043408891N11710592WA008470083501105000
B2035093408919N11710569WA008410083402105000
B2035143408911N11710533WA008480083701605000
B2035193408893N11710513WA008520083901605000
B2035243408879N11710508WA008580084301405000
B2035293408890N11710513WA008560084402205000
B2035343408908N11710484WA008650084502205000
B2035393408892N11710459WA008690084801605000
B2035443408878N11710467WA008740085202705000
B2035493408906N11710464WA008730085402005000
B2035543408902N11710426WA008770085702005000
B2035593408884N11710428WA008770086001705000
B2036043408901N11710438WA008790086102105000
B2036093408908N11710404WA008730086202405000
B2036143408891N11710392WA008800086501705000
B2036193408874N11710396WA008850086901305000
B2036243408876N11710415WA008870087001605000
B2036293408902N11710403WA008870087102405000
B2036343408884N11710375WA008880087301905000
B2036393408863N11710371WA008890087401305000
B2036443408852N11710387WA008840087501505000
B2036493408876N11710375WA008820087502205000
B2036543408872N11710348WA008880087602205000
B2036593408851N11710327WA008780087501505000
B2037043408838N11710303WA008780087401005000
B2037093408823N11710281WA008790087401405000
B2037143408814N11710283WA008880087601805000
B2037193408842N11710286WA008940087701805000
B2037243408850N11710256WA008960087901805000
B2037293408832N11710239WA009020088401405000
B2037343408812N11710238WA009040088801405000
B2037393408808N11710258WA009040089001105000
B2037443408813N11710278WA008980088901405000
B2037493408793N11710257WA008850088801905000
B2037543408779N11710223WA008800088600905000
B2037593408762N11710191WA008740088200905000
B2038043408745N11710158WA008680087801505000
B2038093408728N11710127WA008640087301205000
B2038143408709N11710098WA008660087101305000
B2038193408689N11710077WA008680087001305000
B2038243408664N11710063WA008670086801405000
B2038293408648N11710036WA008750086701305000
B2038343408633N11710002WA008740086601405000
B2038393408622N11709967WA008660086600905000
B2038443408611N11709930WA008570086501505000
B2038493408601N11709901WA008530086301205000
B2038543408590N11709874WA008450086001205000
B2038593408585N11709849WA008440085701205000
B2039043408585N11709850WA008450085501605000
B2039093408585N11709851WA008450085301305000
B2039143408586N11709852WA008440085101605000
B2039193408587N11709852WA008450085001105000
B2039243408587N11709851WA008450084901505000
B2039293408586N11709850WA008450084801605000
B2039343408587N11709851WA008450084701205000
B2039393408588N11709852WA008450084501205000
B2039443408588N11709852WA008440084501605000
B2039493408588N11709852WA008440084401605000
B2039543408587N11709851WA008440084301305000
B2039593408588N11709853WA008440084201405000
B2040043408588N11709854WA008440084101105000
B2040093408589N11709854WA008450084001305000
B2040143408589N11709854WA008450084001105000
B2040193408589N11709853WA008450084001105000
B2040243408589N11709854WA008450083900905000
B2040293408589N11709853WA008450083901005000
B2040343408591N11709851WA008460083901305000
B2040393408592N11709849WA008480083901205000
B2040443408593N11709848WA008490083901205000
B2040493408595N11709847WA008500083901205000
B2040543408596N11709845WA008510084001305000
B2040593408597N11709844WA008520083901205000
B2041043408598N11709843WA008530084001105000
B2041093408600N11709842WA008540084000805000
B2041143408600N11709841WA008540084201105000
B2041193408601N11709839WA008550084201105000
B2041243408601N11709838WA008560084301105000
B2041293408602N11709834WA008570084301105000
B2041343408603N11709831WA008580084301105000
B2041393408605N11709829WA008590084401305000
B2041443408606N11709829WA008600084401305000
B2041493408607N11709828WA008600084401405000
B2041543408607N11709828WA008610084501405000
B2041593408609N11709826WA008620084501605000
B2042043408610N11709825WA008630084501205000
B2042093408610N11709824WA008630084601705000
B2042143408612N11709821WA008640084601505000
B2042193408613N11709820WA008650084701405000
B2042243408612N11709818WA008660084901105000
B2042293408612N11709818WA008660085001405000
B2042343408612N11709818WA008660085001405000
B2042393408611N11709819WA008660085101605000
B2042443408611N11709817WA008660085201005000
B2042493408612N11709815WA008670085101105000
B2042543408612N11709813WA008680085101105000
B2042593408612N11709811WA008690085201205000
B2043043408612N11709810WA008690085201105000
F20430917192830
B2043093408613N11709809WA008690085301504000
F2043141317192830
B2043143408613N11709808WA008700085401405000
B2043193408614N11709806WA008710085501305000
B2043243408614N11709804WA008720085501405000
B2043293408614N11709803WA008730085601305000
B2043343408615N11709803WA008730085601205000
B2043393408616N11709804WA008730085601405000
B2043443408617N11709806WA008740085601705000
B2043493408617N11709804WA008740085701705000
B2043543408618N11709803WA008750085801305000
B2043593408619N11709801WA008760085901505000
B2044043408619N11709800WA008770086001305000
B2044093408620N11709798WA008780086001405000
B2044143408620N11709796WA008790086101205000
B2044193408621N11709795WA008800086101005000
B2044243408621N11709795WA008800086201205000
B2044293408621N11709795WA008800086201605000
B2044343408621N11709795WA008800086301405000
B2044393408621N11709794WA008800086401305000
B2044443408620N11709794WA008800086401105000
B2044493408621N11709792WA008810086501305000
B2044543408622N11709790WA008820086601705000
